{
  "contractName": "BokkyPooBahsDateTimeContract",
  "abi": [
    {
      "inputs": [],
      "name": "DOW_FRI",
      "outputs": [
        {
          "internalType": "uint256",
          "name": "",
          "type": "uint256"
        }
      ],
      "stateMutability": "view",
      "type": "function"
    },
    {
      "inputs": [],
      "name": "DOW_MON",
      "outputs": [
        {
          "internalType": "uint256",
          "name": "",
          "type": "uint256"
        }
      ],
      "stateMutability": "view",
      "type": "function"
    },
    {
      "inputs": [],
      "name": "DOW_SAT",
      "outputs": [
        {
          "internalType": "uint256",
          "name": "",
          "type": "uint256"
        }
      ],
      "stateMutability": "view",
      "type": "function"
    },
    {
      "inputs": [],
      "name": "DOW_SUN",
      "outputs": [
        {
          "internalType": "uint256",
          "name": "",
          "type": "uint256"
        }
      ],
      "stateMutability": "view",
      "type": "function"
    },
    {
      "inputs": [],
      "name": "DOW_THU",
      "outputs": [
        {
          "internalType": "uint256",
          "name": "",
          "type": "uint256"
        }
      ],
      "stateMutability": "view",
      "type": "function"
    },
    {
      "inputs": [],
      "name": "DOW_TUE",
      "outputs": [
        {
          "internalType": "uint256",
          "name": "",
          "type": "uint256"
        }
      ],
      "stateMutability": "view",
      "type": "function"
    },
    {
      "inputs": [],
      "name": "DOW_WED",
      "outputs": [
        {
          "internalType": "uint256",
          "name": "",
          "type": "uint256"
        }
      ],
      "stateMutability": "view",
      "type": "function"
    },
    {
      "inputs": [],
      "name": "OFFSET19700101",
      "outputs": [
        {
          "internalType": "int256",
          "name": "",
          "type": "int256"
        }
      ],
      "stateMutability": "view",
      "type": "function"
    },
    {
      "inputs": [],
      "name": "SECONDS_PER_DAY",
      "outputs": [
        {
          "internalType": "uint256",
          "name": "",
          "type": "uint256"
        }
      ],
      "stateMutability": "view",
      "type": "function"
    },
    {
      "inputs": [],
      "name": "SECONDS_PER_HOUR",
      "outputs": [
        {
          "internalType": "uint256",
          "name": "",
          "type": "uint256"
        }
      ],
      "stateMutability": "view",
      "type": "function"
    },
    {
      "inputs": [],
      "name": "SECONDS_PER_MINUTE",
      "outputs": [
        {
          "internalType": "uint256",
          "name": "",
          "type": "uint256"
        }
      ],
      "stateMutability": "view",
      "type": "function"
    },
    {
      "inputs": [],
      "name": "_now",
      "outputs": [
        {
          "internalType": "uint256",
          "name": "timestamp",
          "type": "uint256"
        }
      ],
      "stateMutability": "view",
      "type": "function"
    },
    {
      "inputs": [],
      "name": "_nowDateTime",
      "outputs": [
        {
          "internalType": "uint256",
          "name": "year",
          "type": "uint256"
        },
        {
          "internalType": "uint256",
          "name": "month",
          "type": "uint256"
        },
        {
          "internalType": "uint256",
          "name": "day",
          "type": "uint256"
        },
        {
          "internalType": "uint256",
          "name": "hour",
          "type": "uint256"
        },
        {
          "internalType": "uint256",
          "name": "minute",
          "type": "uint256"
        },
        {
          "internalType": "uint256",
          "name": "second",
          "type": "uint256"
        }
      ],
      "stateMutability": "view",
      "type": "function"
    },
    {
      "inputs": [
        {
          "internalType": "uint256",
          "name": "year",
          "type": "uint256"
        },
        {
          "internalType": "uint256",
          "name": "month",
          "type": "uint256"
        },
        {
          "internalType": "uint256",
          "name": "day",
          "type": "uint256"
        }
      ],
      "name": "_daysFromDate",
      "outputs": [
        {
          "internalType": "uint256",
          "name": "_days",
          "type": "uint256"
        }
      ],
      "stateMutability": "pure",
      "type": "function"
    },
    {
      "inputs": [
        {
          "internalType": "uint256",
          "name": "_days",
          "type": "uint256"
        }
      ],
      "name": "_daysToDate",
      "outputs": [
        {
          "internalType": "uint256",
          "name": "year",
          "type": "uint256"
        },
        {
          "internalType": "uint256",
          "name": "month",
          "type": "uint256"
        },
        {
          "internalType": "uint256",
          "name": "day",
          "type": "uint256"
        }
      ],
      "stateMutability": "pure",
      "type": "function"
    },
    {
      "inputs": [
        {
          "internalType": "uint256",
          "name": "year",
          "type": "uint256"
        },
        {
          "internalType": "uint256",
          "name": "month",
          "type": "uint256"
        },
        {
          "internalType": "uint256",
          "name": "day",
          "type": "uint256"
        }
      ],
      "name": "timestampFromDate",
      "outputs": [
        {
          "internalType": "uint256",
          "name": "timestamp",
          "type": "uint256"
        }
      ],
      "stateMutability": "pure",
      "type": "function"
    },
    {
      "inputs": [
        {
          "internalType": "uint256",
          "name": "year",
          "type": "uint256"
        },
        {
          "internalType": "uint256",
          "name": "month",
          "type": "uint256"
        },
        {
          "internalType": "uint256",
          "name": "day",
          "type": "uint256"
        },
        {
          "internalType": "uint256",
          "name": "hour",
          "type": "uint256"
        },
        {
          "internalType": "uint256",
          "name": "minute",
          "type": "uint256"
        },
        {
          "internalType": "uint256",
          "name": "second",
          "type": "uint256"
        }
      ],
      "name": "timestampFromDateTime",
      "outputs": [
        {
          "internalType": "uint256",
          "name": "timestamp",
          "type": "uint256"
        }
      ],
      "stateMutability": "pure",
      "type": "function"
    },
    {
      "inputs": [
        {
          "internalType": "uint256",
          "name": "timestamp",
          "type": "uint256"
        }
      ],
      "name": "timestampToDate",
      "outputs": [
        {
          "internalType": "uint256",
          "name": "year",
          "type": "uint256"
        },
        {
          "internalType": "uint256",
          "name": "month",
          "type": "uint256"
        },
        {
          "internalType": "uint256",
          "name": "day",
          "type": "uint256"
        }
      ],
      "stateMutability": "pure",
      "type": "function"
    },
    {
      "inputs": [
        {
          "internalType": "uint256",
          "name": "timestamp",
          "type": "uint256"
        }
      ],
      "name": "timestampToDateTime",
      "outputs": [
        {
          "internalType": "uint256",
          "name": "year",
          "type": "uint256"
        },
        {
          "internalType": "uint256",
          "name": "month",
          "type": "uint256"
        },
        {
          "internalType": "uint256",
          "name": "day",
          "type": "uint256"
        },
        {
          "internalType": "uint256",
          "name": "hour",
          "type": "uint256"
        },
        {
          "internalType": "uint256",
          "name": "minute",
          "type": "uint256"
        },
        {
          "internalType": "uint256",
          "name": "second",
          "type": "uint256"
        }
      ],
      "stateMutability": "pure",
      "type": "function"
    },
    {
      "inputs": [
        {
          "internalType": "uint256",
          "name": "year",
          "type": "uint256"
        },
        {
          "internalType": "uint256",
          "name": "month",
          "type": "uint256"
        },
        {
          "internalType": "uint256",
          "name": "day",
          "type": "uint256"
        }
      ],
      "name": "isValidDate",
      "outputs": [
        {
          "internalType": "bool",
          "name": "valid",
          "type": "bool"
        }
      ],
      "stateMutability": "pure",
      "type": "function"
    },
    {
      "inputs": [
        {
          "internalType": "uint256",
          "name": "year",
          "type": "uint256"
        },
        {
          "internalType": "uint256",
          "name": "month",
          "type": "uint256"
        },
        {
          "internalType": "uint256",
          "name": "day",
          "type": "uint256"
        },
        {
          "internalType": "uint256",
          "name": "hour",
          "type": "uint256"
        },
        {
          "internalType": "uint256",
          "name": "minute",
          "type": "uint256"
        },
        {
          "internalType": "uint256",
          "name": "second",
          "type": "uint256"
        }
      ],
      "name": "isValidDateTime",
      "outputs": [
        {
          "internalType": "bool",
          "name": "valid",
          "type": "bool"
        }
      ],
      "stateMutability": "pure",
      "type": "function"
    },
    {
      "inputs": [
        {
          "internalType": "uint256",
          "name": "timestamp",
          "type": "uint256"
        }
      ],
      "name": "isLeapYear",
      "outputs": [
        {
          "internalType": "bool",
          "name": "leapYear",
          "type": "bool"
        }
      ],
      "stateMutability": "pure",
      "type": "function"
    },
    {
      "inputs": [
        {
          "internalType": "uint256",
          "name": "year",
          "type": "uint256"
        }
      ],
      "name": "_isLeapYear",
      "outputs": [
        {
          "internalType": "bool",
          "name": "leapYear",
          "type": "bool"
        }
      ],
      "stateMutability": "pure",
      "type": "function"
    },
    {
      "inputs": [
        {
          "internalType": "uint256",
          "name": "timestamp",
          "type": "uint256"
        }
      ],
      "name": "isWeekDay",
      "outputs": [
        {
          "internalType": "bool",
          "name": "weekDay",
          "type": "bool"
        }
      ],
      "stateMutability": "pure",
      "type": "function"
    },
    {
      "inputs": [
        {
          "internalType": "uint256",
          "name": "timestamp",
          "type": "uint256"
        }
      ],
      "name": "isWeekEnd",
      "outputs": [
        {
          "internalType": "bool",
          "name": "weekEnd",
          "type": "bool"
        }
      ],
      "stateMutability": "pure",
      "type": "function"
    },
    {
      "inputs": [
        {
          "internalType": "uint256",
          "name": "timestamp",
          "type": "uint256"
        }
      ],
      "name": "getDaysInMonth",
      "outputs": [
        {
          "internalType": "uint256",
          "name": "daysInMonth",
          "type": "uint256"
        }
      ],
      "stateMutability": "pure",
      "type": "function"
    },
    {
      "inputs": [
        {
          "internalType": "uint256",
          "name": "year",
          "type": "uint256"
        },
        {
          "internalType": "uint256",
          "name": "month",
          "type": "uint256"
        }
      ],
      "name": "_getDaysInMonth",
      "outputs": [
        {
          "internalType": "uint256",
          "name": "daysInMonth",
          "type": "uint256"
        }
      ],
      "stateMutability": "pure",
      "type": "function"
    },
    {
      "inputs": [
        {
          "internalType": "uint256",
          "name": "timestamp",
          "type": "uint256"
        }
      ],
      "name": "getDayOfWeek",
      "outputs": [
        {
          "internalType": "uint256",
          "name": "dayOfWeek",
          "type": "uint256"
        }
      ],
      "stateMutability": "pure",
      "type": "function"
    },
    {
      "inputs": [
        {
          "internalType": "uint256",
          "name": "timestamp",
          "type": "uint256"
        }
      ],
      "name": "getYear",
      "outputs": [
        {
          "internalType": "uint256",
          "name": "year",
          "type": "uint256"
        }
      ],
      "stateMutability": "pure",
      "type": "function"
    },
    {
      "inputs": [
        {
          "internalType": "uint256",
          "name": "timestamp",
          "type": "uint256"
        }
      ],
      "name": "getMonth",
      "outputs": [
        {
          "internalType": "uint256",
          "name": "month",
          "type": "uint256"
        }
      ],
      "stateMutability": "pure",
      "type": "function"
    },
    {
      "inputs": [
        {
          "internalType": "uint256",
          "name": "timestamp",
          "type": "uint256"
        }
      ],
      "name": "getDay",
      "outputs": [
        {
          "internalType": "uint256",
          "name": "day",
          "type": "uint256"
        }
      ],
      "stateMutability": "pure",
      "type": "function"
    },
    {
      "inputs": [
        {
          "internalType": "uint256",
          "name": "timestamp",
          "type": "uint256"
        }
      ],
      "name": "getHour",
      "outputs": [
        {
          "internalType": "uint256",
          "name": "hour",
          "type": "uint256"
        }
      ],
      "stateMutability": "pure",
      "type": "function"
    },
    {
      "inputs": [
        {
          "internalType": "uint256",
          "name": "timestamp",
          "type": "uint256"
        }
      ],
      "name": "getMinute",
      "outputs": [
        {
          "internalType": "uint256",
          "name": "minute",
          "type": "uint256"
        }
      ],
      "stateMutability": "pure",
      "type": "function"
    },
    {
      "inputs": [
        {
          "internalType": "uint256",
          "name": "timestamp",
          "type": "uint256"
        }
      ],
      "name": "getSecond",
      "outputs": [
        {
          "internalType": "uint256",
          "name": "second",
          "type": "uint256"
        }
      ],
      "stateMutability": "pure",
      "type": "function"
    },
    {
      "inputs": [
        {
          "internalType": "uint256",
          "name": "timestamp",
          "type": "uint256"
        },
        {
          "internalType": "uint256",
          "name": "_years",
          "type": "uint256"
        }
      ],
      "name": "addYears",
      "outputs": [
        {
          "internalType": "uint256",
          "name": "newTimestamp",
          "type": "uint256"
        }
      ],
      "stateMutability": "pure",
      "type": "function"
    },
    {
      "inputs": [
        {
          "internalType": "uint256",
          "name": "timestamp",
          "type": "uint256"
        },
        {
          "internalType": "uint256",
          "name": "_months",
          "type": "uint256"
        }
      ],
      "name": "addMonths",
      "outputs": [
        {
          "internalType": "uint256",
          "name": "newTimestamp",
          "type": "uint256"
        }
      ],
      "stateMutability": "pure",
      "type": "function"
    },
    {
      "inputs": [
        {
          "internalType": "uint256",
          "name": "timestamp",
          "type": "uint256"
        },
        {
          "internalType": "uint256",
          "name": "_days",
          "type": "uint256"
        }
      ],
      "name": "addDays",
      "outputs": [
        {
          "internalType": "uint256",
          "name": "newTimestamp",
          "type": "uint256"
        }
      ],
      "stateMutability": "pure",
      "type": "function"
    },
    {
      "inputs": [
        {
          "internalType": "uint256",
          "name": "timestamp",
          "type": "uint256"
        },
        {
          "internalType": "uint256",
          "name": "_hours",
          "type": "uint256"
        }
      ],
      "name": "addHours",
      "outputs": [
        {
          "internalType": "uint256",
          "name": "newTimestamp",
          "type": "uint256"
        }
      ],
      "stateMutability": "pure",
      "type": "function"
    },
    {
      "inputs": [
        {
          "internalType": "uint256",
          "name": "timestamp",
          "type": "uint256"
        },
        {
          "internalType": "uint256",
          "name": "_minutes",
          "type": "uint256"
        }
      ],
      "name": "addMinutes",
      "outputs": [
        {
          "internalType": "uint256",
          "name": "newTimestamp",
          "type": "uint256"
        }
      ],
      "stateMutability": "pure",
      "type": "function"
    },
    {
      "inputs": [
        {
          "internalType": "uint256",
          "name": "timestamp",
          "type": "uint256"
        },
        {
          "internalType": "uint256",
          "name": "_seconds",
          "type": "uint256"
        }
      ],
      "name": "addSeconds",
      "outputs": [
        {
          "internalType": "uint256",
          "name": "newTimestamp",
          "type": "uint256"
        }
      ],
      "stateMutability": "pure",
      "type": "function"
    },
    {
      "inputs": [
        {
          "internalType": "uint256",
          "name": "timestamp",
          "type": "uint256"
        },
        {
          "internalType": "uint256",
          "name": "_years",
          "type": "uint256"
        }
      ],
      "name": "subYears",
      "outputs": [
        {
          "internalType": "uint256",
          "name": "newTimestamp",
          "type": "uint256"
        }
      ],
      "stateMutability": "pure",
      "type": "function"
    },
    {
      "inputs": [
        {
          "internalType": "uint256",
          "name": "timestamp",
          "type": "uint256"
        },
        {
          "internalType": "uint256",
          "name": "_months",
          "type": "uint256"
        }
      ],
      "name": "subMonths",
      "outputs": [
        {
          "internalType": "uint256",
          "name": "newTimestamp",
          "type": "uint256"
        }
      ],
      "stateMutability": "pure",
      "type": "function"
    },
    {
      "inputs": [
        {
          "internalType": "uint256",
          "name": "timestamp",
          "type": "uint256"
        },
        {
          "internalType": "uint256",
          "name": "_days",
          "type": "uint256"
        }
      ],
      "name": "subDays",
      "outputs": [
        {
          "internalType": "uint256",
          "name": "newTimestamp",
          "type": "uint256"
        }
      ],
      "stateMutability": "pure",
      "type": "function"
    },
    {
      "inputs": [
        {
          "internalType": "uint256",
          "name": "timestamp",
          "type": "uint256"
        },
        {
          "internalType": "uint256",
          "name": "_hours",
          "type": "uint256"
        }
      ],
      "name": "subHours",
      "outputs": [
        {
          "internalType": "uint256",
          "name": "newTimestamp",
          "type": "uint256"
        }
      ],
      "stateMutability": "pure",
      "type": "function"
    },
    {
      "inputs": [
        {
          "internalType": "uint256",
          "name": "timestamp",
          "type": "uint256"
        },
        {
          "internalType": "uint256",
          "name": "_minutes",
          "type": "uint256"
        }
      ],
      "name": "subMinutes",
      "outputs": [
        {
          "internalType": "uint256",
          "name": "newTimestamp",
          "type": "uint256"
        }
      ],
      "stateMutability": "pure",
      "type": "function"
    },
    {
      "inputs": [
        {
          "internalType": "uint256",
          "name": "timestamp",
          "type": "uint256"
        },
        {
          "internalType": "uint256",
          "name": "_seconds",
          "type": "uint256"
        }
      ],
      "name": "subSeconds",
      "outputs": [
        {
          "internalType": "uint256",
          "name": "newTimestamp",
          "type": "uint256"
        }
      ],
      "stateMutability": "pure",
      "type": "function"
    },
    {
      "inputs": [
        {
          "internalType": "uint256",
          "name": "fromTimestamp",
          "type": "uint256"
        },
        {
          "internalType": "uint256",
          "name": "toTimestamp",
          "type": "uint256"
        }
      ],
      "name": "diffYears",
      "outputs": [
        {
          "internalType": "uint256",
          "name": "_years",
          "type": "uint256"
        }
      ],
      "stateMutability": "pure",
      "type": "function"
    },
    {
      "inputs": [
        {
          "internalType": "uint256",
          "name": "fromTimestamp",
          "type": "uint256"
        },
        {
          "internalType": "uint256",
          "name": "toTimestamp",
          "type": "uint256"
        }
      ],
      "name": "diffMonths",
      "outputs": [
        {
          "internalType": "uint256",
          "name": "_months",
          "type": "uint256"
        }
      ],
      "stateMutability": "pure",
      "type": "function"
    },
    {
      "inputs": [
        {
          "internalType": "uint256",
          "name": "fromTimestamp",
          "type": "uint256"
        },
        {
          "internalType": "uint256",
          "name": "toTimestamp",
          "type": "uint256"
        }
      ],
      "name": "diffDays",
      "outputs": [
        {
          "internalType": "uint256",
          "name": "_days",
          "type": "uint256"
        }
      ],
      "stateMutability": "pure",
      "type": "function"
    },
    {
      "inputs": [
        {
          "internalType": "uint256",
          "name": "fromTimestamp",
          "type": "uint256"
        },
        {
          "internalType": "uint256",
          "name": "toTimestamp",
          "type": "uint256"
        }
      ],
      "name": "diffHours",
      "outputs": [
        {
          "internalType": "uint256",
          "name": "_hours",
          "type": "uint256"
        }
      ],
      "stateMutability": "pure",
      "type": "function"
    },
    {
      "inputs": [
        {
          "internalType": "uint256",
          "name": "fromTimestamp",
          "type": "uint256"
        },
        {
          "internalType": "uint256",
          "name": "toTimestamp",
          "type": "uint256"
        }
      ],
      "name": "diffMinutes",
      "outputs": [
        {
          "internalType": "uint256",
          "name": "_minutes",
          "type": "uint256"
        }
      ],
      "stateMutability": "pure",
      "type": "function"
    },
    {
      "inputs": [
        {
          "internalType": "uint256",
          "name": "fromTimestamp",
          "type": "uint256"
        },
        {
          "internalType": "uint256",
          "name": "toTimestamp",
          "type": "uint256"
        }
      ],
      "name": "diffSeconds",
      "outputs": [
        {
          "internalType": "uint256",
          "name": "_seconds",
          "type": "uint256"
        }
      ],
      "stateMutability": "pure",
      "type": "function"
    }
  ],
  "bytecode": "0x608060405234801561001057600080fd5b5061241a806100206000396000f3fe608060405234801561001057600080fd5b506004361061030b5760003560e01c80638aa001fc1161019d578063c7b6fd6a116100e9578063de5101af116100a2578063f615ed541161007c578063f615ed5414610b46578063f9fd525014610b76578063fa93f88314610b94578063ff2258cb14610bc45761030b565b8063de5101af14610ac1578063e955643014610af3578063ea1c169014610b115761030b565b8063c7b6fd6a146109d7578063c7edf88c14610a07578063c9d3462214610a25578063cfbb9f3714610a55578063d2b5074314610a73578063d6582d0d14610a915761030b565b80639e524caa11610156578063ad203bd411610130578063ad203bd414610929578063b05eb08d14610959578063b3bb8cd414610989578063b8d16dbc146109a75761030b565b80639e524caa146108ab578063a324ad24146108db578063a3f144ae1461090b5761030b565b80638aa001fc146107a85780638bbf51b7146107d85780638d4a2d39146107f657806390059aed146108265780639220d4261461085857806392d663131461087b5761030b565b80634355644d1161025c5780635e05bd6d116102155780637217523c116101ef5780637217523c146106fa57806374f0314f1461072a5780637be341091461074857806389a3a00d146107785761030b565b80635e05bd6d1461066a57806362fb96971461069a57806365c72840146106ca5761030b565b80634355644d1461055c5780634371c4651461058c578063442b8c79146105bc578063444fda82146105ec5780634b3215021461061c5780634df861261461064c5761030b565b80631f4f77b2116102c95780632af123b8116102a35780632af123b81461049c5780633293d007146104cc5780633e239e1a146104fc5780633f9e0eb71461052c5761030b565b80631f4f77b21461041e57806322f8a2b81461044e578063294416741461047e5761030b565b80625015531461031057806302e98e0d1461034057806310848ddf14610370578063126702a0146103a057806314b2d6dc146103be5780631e0582e9146103ee575b600080fd5b61032a60048036038101906103259190611d36565b610bf4565b6040516103379190611ead565b60405180910390f35b61035a60048036038101906103559190611d36565b610c08565b6040516103679190611ead565b60405180910390f35b61038a60048036038101906103859190611d0d565b610c1c565b6040516103979190611ead565b60405180910390f35b6103a8610c2e565b6040516103b59190611ead565b60405180910390f35b6103d860048036038101906103d39190611d72565b610c33565b6040516103e59190611e77565b60405180910390f35b61040860048036038101906104039190611d72565b610c49565b6040516104159190611ead565b60405180910390f35b61043860048036038101906104339190611d72565b610c5f565b6040516104459190611ead565b60405180910390f35b61046860048036038101906104639190611d0d565b610c75565b6040516104759190611ead565b60405180910390f35b610486610c87565b6040516104939190611ead565b60405180910390f35b6104b660048036038101906104b19190611d36565b610c8c565b6040516104c39190611ead565b60405180910390f35b6104e660048036038101906104e19190611dc1565b610ca0565b6040516104f39190611e77565b60405180910390f35b61051660048036038101906105119190611d0d565b610cbc565b6040516105239190611ead565b60405180910390f35b61054660048036038101906105419190611d36565b610cce565b6040516105539190611ead565b60405180910390f35b61057660048036038101906105719190611d36565b610ce2565b6040516105839190611ead565b60405180910390f35b6105a660048036038101906105a19190611d0d565b610cf6565b6040516105b39190611e77565b60405180910390f35b6105d660048036038101906105d19190611d36565b610d08565b6040516105e39190611ead565b60405180910390f35b61060660048036038101906106019190611d36565b610d1c565b6040516106139190611ead565b60405180910390f35b61063660048036038101906106319190611d36565b610d30565b6040516106439190611ead565b60405180910390f35b610654610d44565b6040516106619190611ead565b60405180910390f35b610684600480360381019061067f9190611dc1565b610d4a565b6040516106919190611ead565b60405180910390f35b6106b460048036038101906106af9190611d36565b610d66565b6040516106c19190611ead565b60405180910390f35b6106e460048036038101906106df9190611d0d565b610d7a565b6040516106f19190611ead565b60405180910390f35b610714600480360381019061070f9190611d36565b610d8c565b6040516107219190611ead565b60405180910390f35b610732610da0565b60405161073f9190611ead565b60405180910390f35b610762600480360381019061075d9190611d36565b610da7565b60405161076f9190611ead565b60405180910390f35b610792600480360381019061078d9190611d36565b610dbb565b60405161079f9190611ead565b60405180910390f35b6107c260048036038101906107bd9190611d0d565b610dcf565b6040516107cf9190611ead565b60405180910390f35b6107e0610de1565b6040516107ed9190611ead565b60405180910390f35b610810600480360381019061080b9190611d36565b610de6565b60405161081d9190611ead565b60405180910390f35b610840600480360381019061083b9190611d0d565b610dfa565b60405161084f93929190611ec8565b60405180910390f35b610860610e15565b60405161087296959493929190611eff565b60405180910390f35b61089560048036038101906108909190611d0d565b610e47565b6040516108a29190611ead565b60405180910390f35b6108c560048036038101906108c09190611d36565b610e59565b6040516108d29190611ead565b60405180910390f35b6108f560048036038101906108f09190611d0d565b610e6d565b6040516109029190611ead565b60405180910390f35b610913610e7f565b6040516109209190611e92565b60405180910390f35b610943600480360381019061093e9190611d36565b610e86565b6040516109509190611ead565b60405180910390f35b610973600480360381019061096e9190611d0d565b610e9a565b6040516109809190611e77565b60405180910390f35b610991610eac565b60405161099e9190611ead565b60405180910390f35b6109c160048036038101906109bc9190611d0d565b610eb4565b6040516109ce9190611e77565b60405180910390f35b6109f160048036038101906109ec9190611d36565b610ec6565b6040516109fe9190611ead565b60405180910390f35b610a0f610eda565b604051610a1c9190611ead565b60405180910390f35b610a3f6004803603810190610a3a9190611d36565b610edf565b604051610a4c9190611ead565b60405180910390f35b610a5d610ef3565b604051610a6a9190611ead565b60405180910390f35b610a7b610ef8565b604051610a889190611ead565b60405180910390f35b610aab6004803603810190610aa69190611d0d565b610efd565b604051610ab89190611e77565b60405180910390f35b610adb6004803603810190610ad69190611d0d565b610f0f565b604051610aea93929190611ec8565b60405180910390f35b610afb610f30565b604051610b089190611ead565b60405180910390f35b610b2b6004803603810190610b269190611d0d565b610f35565b604051610b3d96959493929190611eff565b60405180910390f35b610b606004803603810190610b5b9190611d36565b610f68565b604051610b6d9190611ead565b60405180910390f35b610b7e610f7c565b604051610b8b9190611ead565b60405180910390f35b610bae6004803603810190610ba99190611d0d565b610f81565b604051610bbb9190611ead565b60405180910390f35b610bde6004803603810190610bd99190611d36565b610f93565b604051610beb9190611ead565b60405180910390f35b6000610c008383610fa7565b905092915050565b6000610c148383610fd7565b905092915050565b6000610c2782611006565b9050919050565b600281565b6000610c4084848461103a565b90509392505050565b6000610c56848484611091565b90509392505050565b6000610c6c8484846111f0565b90509392505050565b6000610c8082611214565b9050919050565b600781565b6000610c988383611255565b905092915050565b6000610cb0878787878787611285565b90509695505050505050565b6000610cc7826112c8565b9050919050565b6000610cda83836112f2565b905092915050565b6000610cee838361137d565b905092915050565b6000610d0182611460565b9050919050565b6000610d148383611476565b905092915050565b6000610d28838361150c565b905092915050565b6000610d3c83836115a2565b905092915050565b610e1081565b6000610d5a8787878787876115d2565b90509695505050505050565b6000610d728383611633565b905092915050565b6000610d8582611656565b9050919050565b6000610d98838361167d565b905092915050565b6201518081565b6000610db383836116ae565b905092915050565b6000610dc78383611741565b905092915050565b6000610dda82611770565b9050919050565b600381565b6000610df28383611786565b905092915050565b6000806000610e08846117a9565b9250925092509193909250565b600080600080600080610e2742611948565b809650819750829850839950849a50859b50505050505050909192939495565b6000610e52826119cf565b9050919050565b6000610e6583836119f4565b905092915050565b6000610e7882611a23565b9050919050565b62253d8c81565b6000610e928383611a49565b905092915050565b6000610ea582611b2f565b9050919050565b600042905090565b6000610ebf82611b78565b9050919050565b6000610ed28383611ba7565b905092915050565b600681565b6000610eeb8383611bd8565b905092915050565b600481565b600581565b6000610f0882611c09565b9050919050565b6000806000610f1d84611c1f565b8093508194508295505050509193909250565b603c81565b600080600080600080610f4787611948565b809650819750829850839950849a50859b5050505050505091939550919395565b6000610f748383611c4e565b905092915050565b600181565b6000610f8c82611c71565b9050919050565b6000610f9f8383611c99565b905092915050565b6000610e1082610fb791906121fc565b83610fc291906122ea565b905082811115610fd157600080fd5b92915050565b600081831115610fe657600080fd5b603c8383610ff491906122ea565b610ffe91906120b4565b905092915050565b6000806000611022620151808561101d91906120b4565b6117a9565b509150915061103182826112f2565b92505050919050565b60006107b2841015801561104e5750600083115b801561105b5750600c8311155b1561108a57600061106c85856112f2565b905060008311801561107e5750808311155b1561108857600191505b505b9392505050565b60006107b28410156110a257600080fd5b600084905060008490506000849050600062253d8c60046064600c600e876110ca9190612256565b6110d4919061204a565b611324886110e29190611f60565b6110ec9190611f60565b6110f6919061204a565b600361110291906120e5565b61110c919061204a565b600c80600c600e8861111e9190612256565b611128919061204a565b61113291906120e5565b60028761113f9190612256565b6111499190612256565b61016f61115691906120e5565b611160919061204a565b6004600c600e886111719190612256565b61117b919061204a565b6112c0896111899190611f60565b6111939190611f60565b6105b56111a091906120e5565b6111aa919061204a565b617d4b866111b89190612256565b6111c29190611f60565b6111cc9190611f60565b6111d69190612256565b6111e09190612256565b9050809450505050509392505050565b600062015180611201858585611091565b61120b91906121fc565b90509392505050565b600080620151808361122691906120b4565b9050600160076003836112399190611ff4565b611243919061233e565b61124d9190611ff4565b915050919050565b60008183111561126457600080fd5b610e10838361127391906122ea565b61127d91906120b4565b905092915050565b600061129287878761103a565b156112be576018841080156112a75750603c83105b80156112b35750603c82105b156112bd57600190505b5b9695505050505050565b60008062015180836112da919061233e565b9050610e10816112ea91906120b4565b915050919050565b600060018214806113035750600382145b8061130e5750600582145b806113195750600782145b806113245750600882145b8061132f5750600a82145b8061133a5750600c82145b1561134857601f9050611377565b6002821461135957601e9050611376565b61136283611b2f565b61136d57601c611370565b601d5b60ff1690505b5b92915050565b60008060008061139a620151808761139591906120b4565b6117a9565b92509250925084826113ac9190611ff4565b9150600c6001836113bd91906122ea565b6113c791906120b4565b836113d29190611ff4565b92506001600c6001846113e591906122ea565b6113ef919061233e565b6113f99190611ff4565b9150600061140784846112f2565b905080821115611415578091505b6201518087611424919061233e565b62015180611433868686611091565b61143d91906121fc565b6114479190611ff4565b94508685101561145657600080fd5b5050505092915050565b6000600661146d83611214565b10159050919050565b600080600080611493620151808761148e91906120b4565b6117a9565b92509250925084836114a59190611ff4565b925060006114b384846112f2565b9050808211156114c1578091505b62015180876114d0919061233e565b620151806114df868686611091565b6114e991906121fc565b6114f39190611ff4565b94508685101561150257600080fd5b5050505092915050565b600080600080611529620151808761152491906120b4565b6117a9565b925092509250848361153b91906122ea565b9250600061154984846112f2565b905080821115611557578091505b6201518087611566919061233e565b62015180611575868686611091565b61157f91906121fc565b6115899190611ff4565b94508685111561159857600080fd5b5050505092915050565b6000610e10826115b291906121fc565b836115bd9190611ff4565b9050828110156115cc57600080fd5b92915050565b600081603c846115e291906121fc565b610e10866115f091906121fc565b620151806115ff8b8b8b611091565b61160991906121fc565b6116139190611ff4565b61161d9190611ff4565b6116279190611ff4565b90509695505050505050565b60008183111561164257600080fd5b828261164e91906122ea565b905092915050565b600061166f620151808361166a91906120b4565b6117a9565b909150905080915050919050565b6000620151808261168e91906121fc565b836116999190611ff4565b9050828110156116a857600080fd5b92915050565b6000818311156116bd57600080fd5b6000806116d762015180866116d291906120b4565b6117a9565b50915091506000806116f662015180876116f191906120b4565b6117a9565b509150915082600c8561170991906121fc565b82600c8561171791906121fc565b6117219190611ff4565b61172b91906122ea565b61173591906122ea565b94505050505092915050565b6000603c8261175091906121fc565b8361175b9190611ff4565b90508281101561176a57600080fd5b92915050565b6000603c8261177f919061233e565b9050919050565b600081836117949190611ff4565b9050828110156117a357600080fd5b92915050565b600080600080849050600062253d8c62010bd9836117c79190611f60565b6117d19190611f60565b9050600062023ab18260046117e691906120e5565b6117f0919061204a565b9050600460038262023ab161180591906120e5565b61180f9190611f60565b611819919061204a565b826118249190612256565b9150600062164b096001846118399190611f60565b610fa061184691906120e5565b611850919061204a565b9050601f6004826105b561186491906120e5565b61186e919061204a565b846118799190612256565b6118839190611f60565b9250600061098f84605061189791906120e5565b6118a1919061204a565b9050600060508261098f6118b591906120e5565b6118bf919061204a565b856118ca9190612256565b9050600b826118d9919061204a565b945084600c6118e891906120e5565b6002836118f59190611f60565b6118ff9190612256565b915084836031866119109190612256565b606461191c91906120e5565b6119269190611f60565b6119309190611f60565b92508298508197508096505050505050509193909250565b600080600080600080611968620151808861196391906120b4565b6117a9565b80965081975082985050505060006201518088611985919061233e565b9050610e108161199591906120b4565b9350610e10816119a5919061233e565b9050603c816119b491906120b4565b9250603c816119c3919061233e565b91505091939550919395565b60006119e862015180836119e391906120b4565b6117a9565b90505080915050919050565b6000603c82611a0391906121fc565b83611a0e91906122ea565b905082811115611a1d57600080fd5b92915050565b6000611a3c6201518083611a3791906120b4565b6117a9565b9091505080915050919050565b600080600080611a666201518087611a6191906120b4565b6117a9565b925092509250600085600184611a7c91906122ea565b600c86611a8991906121fc565b611a939190611ff4565b611a9d91906122ea565b9050600c81611aac91906120b4565b93506001600c82611abd919061233e565b611ac79190611ff4565b92506000611ad585856112f2565b905080831115611ae3578092505b6201518088611af2919061233e565b62015180611b01878787611091565b611b0b91906121fc565b611b159190611ff4565b955087861115611b2457600080fd5b505050505092915050565b600080600483611b3f919061233e565b148015611b5957506000606483611b56919061233e565b14155b80611b715750600061019083611b6f919061233e565b145b9050919050565b600080611b926201518084611b8d91906120b4565b6117a9565b50509050611b9f81611b2f565b915050919050565b60006201518082611bb891906121fc565b83611bc391906122ea565b905082811115611bd257600080fd5b92915050565b600081831115611be757600080fd5b620151808383611bf791906122ea565b611c0191906120b4565b905092915050565b60006005611c1683611214565b11159050919050565b6000806000611c3b6201518085611c3691906120b4565b6117a9565b8093508194508295505050509193909250565b60008183611c5c91906122ea565b905082811115611c6b57600080fd5b92915050565b600080610e1083611c82919061233e565b9050603c81611c9191906120b4565b915050919050565b600081831115611ca857600080fd5b6000611cc16201518085611cbc91906120b4565b6117a9565b505090506000611cde6201518085611cd991906120b4565b6117a9565b505090508181611cee91906122ea565b9250505092915050565b600081359050611d07816123cd565b92915050565b600060208284031215611d1f57600080fd5b6000611d2d84828501611cf8565b91505092915050565b60008060408385031215611d4957600080fd5b6000611d5785828601611cf8565b9250506020611d6885828601611cf8565b9150509250929050565b600080600060608486031215611d8757600080fd5b6000611d9586828701611cf8565b9350506020611da686828701611cf8565b9250506040611db786828701611cf8565b9150509250925092565b60008060008060008060c08789031215611dda57600080fd5b6000611de889828a01611cf8565b9650506020611df989828a01611cf8565b9550506040611e0a89828a01611cf8565b9450506060611e1b89828a01611cf8565b9350506080611e2c89828a01611cf8565b92505060a0611e3d89828a01611cf8565b9150509295509295509295565b611e538161231e565b82525050565b611e628161232a565b82525050565b611e7181612334565b82525050565b6000602082019050611e8c6000830184611e4a565b92915050565b6000602082019050611ea76000830184611e59565b92915050565b6000602082019050611ec26000830184611e68565b92915050565b6000606082019050611edd6000830186611e68565b611eea6020830185611e68565b611ef76040830184611e68565b949350505050565b600060c082019050611f146000830189611e68565b611f216020830188611e68565b611f2e6040830187611e68565b611f3b6060830186611e68565b611f486080830185611e68565b611f5560a0830184611e68565b979650505050505050565b6000611f6b8261232a565b9150611f768361232a565b9250817f7fffffffffffffffffffffffffffffffffffffffffffffffffffffffffffffff03831360008312151615611fb157611fb061236f565b5b817f8000000000000000000000000000000000000000000000000000000000000000038312600083121615611fe957611fe861236f565b5b828201905092915050565b6000611fff82612334565b915061200a83612334565b9250827fffffffffffffffffffffffffffffffffffffffffffffffffffffffffffffffff0382111561203f5761203e61236f565b5b828201905092915050565b60006120558261232a565b91506120608361232a565b9250826120705761206f61239e565b5b600160000383147f8000000000000000000000000000000000000000000000000000000000000000831416156120a9576120a861236f565b5b828205905092915050565b60006120bf82612334565b91506120ca83612334565b9250826120da576120d961239e565b5b828204905092915050565b60006120f08261232a565b91506120fb8361232a565b9250827f7fffffffffffffffffffffffffffffffffffffffffffffffffffffffffffffff048211600084136000841316161561213a5761213961236f565b5b817f800000000000000000000000000000000000000000000000000000000000000005831260008412600084131616156121775761217661236f565b5b827f800000000000000000000000000000000000000000000000000000000000000005821260008413600084121616156121b4576121b361236f565b5b827f7fffffffffffffffffffffffffffffffffffffffffffffffffffffffffffffff05821260008412600084121616156121f1576121f061236f565b5b828202905092915050565b600061220782612334565b915061221283612334565b9250817fffffffffffffffffffffffffffffffffffffffffffffffffffffffffffffffff048311821515161561224b5761224a61236f565b5b828202905092915050565b60006122618261232a565b915061226c8361232a565b9250827f8000000000000000000000000000000000000000000000000000000000000000018212600084121516156122a7576122a661236f565b5b827f7fffffffffffffffffffffffffffffffffffffffffffffffffffffffffffffff0182136000841216156122df576122de61236f565b5b828203905092915050565b60006122f582612334565b915061230083612334565b9250828210156123135761231261236f565b5b828203905092915050565b60008115159050919050565b6000819050919050565b6000819050919050565b600061234982612334565b915061235483612334565b9250826123645761236361239e565b5b828206905092915050565b7f4e487b7100000000000000000000000000000000000000000000000000000000600052601160045260246000fd5b7f4e487b7100000000000000000000000000000000000000000000000000000000600052601260045260246000fd5b6123d681612334565b81146123e157600080fd5b5056fea2646970667358221220f4ff41470c67ad9482e3639c3d2848a998a4134c7a86d78a1159a1ecf53d71f564736f6c63430008010033",
  "immutableReferences": {},
  "source": "pragma solidity 0.8.1;\r\n\r\n// ----------------------------------------------------------------------------\r\n// BokkyPooBah's DateTime Library v1.00 - Contract Instance\r\n//\r\n// A gas-efficient Solidity date and time library\r\n//\r\n// https://github.com/bokkypoobah/BokkyPooBahsDateTimeLibrary\r\n//\r\n// Tested date range 1970/01/01 to 2345/12/31\r\n//\r\n// Conventions:\r\n// Unit      | Range         | Notes\r\n// :-------- |:-------------:|:-----\r\n// timestamp | >= 0          | Unix timestamp, number of seconds since 1970/01/01 00:00:00 UTC\r\n// year      | 1970 ... 2345 |\r\n// month     | 1 ... 12      |\r\n// day       | 1 ... 31      |\r\n// hour      | 0 ... 23      |\r\n// minute    | 0 ... 59      |\r\n// second    | 0 ... 59      |\r\n// dayOfWeek | 1 ... 7       | 1 = Monday, ..., 7 = Sunday\r\n//\r\n//\r\n// Enjoy. (c) BokkyPooBah / Bok Consulting Pty Ltd 2018.\r\n//\r\n// GNU Lesser General Public License 3.0\r\n// https://www.gnu.org/licenses/lgpl-3.0.en.html\r\n// ----------------------------------------------------------------------------\r\n\r\nimport \"./BokkyPooBahsDateTimeLibrary.sol\";\r\n\r\ncontract BokkyPooBahsDateTimeContract {\r\n    uint public constant SECONDS_PER_DAY = 24 * 60 * 60;\r\n    uint public constant SECONDS_PER_HOUR = 60 * 60;\r\n    uint public constant SECONDS_PER_MINUTE = 60;\r\n    int public constant OFFSET19700101 = 2440588;\r\n\r\n    uint public constant DOW_MON = 1;\r\n    uint public constant DOW_TUE = 2;\r\n    uint public constant DOW_WED = 3;\r\n    uint public constant DOW_THU = 4;\r\n    uint public constant DOW_FRI = 5;\r\n    uint public constant DOW_SAT = 6;\r\n    uint public constant DOW_SUN = 7;\r\n\r\n    function _now() public view returns (uint timestamp) {\r\n        timestamp = block.timestamp;\r\n    }\r\n    function _nowDateTime() public view returns (uint year, uint month, uint day, uint hour, uint minute, uint second) {\r\n        (year, month, day, hour, minute, second) = BokkyPooBahsDateTimeLibrary.timestampToDateTime(block.timestamp);\r\n    }\r\n    function _daysFromDate(uint year, uint month, uint day) public pure returns (uint _days) {\r\n        return BokkyPooBahsDateTimeLibrary._daysFromDate(year, month, day);\r\n    }\r\n    function _daysToDate(uint _days) public pure returns (uint year, uint month, uint day) {\r\n        return BokkyPooBahsDateTimeLibrary._daysToDate(_days);\r\n    }\r\n    function timestampFromDate(uint year, uint month, uint day) public pure returns (uint timestamp) {\r\n        return BokkyPooBahsDateTimeLibrary.timestampFromDate(year, month, day);\r\n    }\r\n    function timestampFromDateTime(uint year, uint month, uint day, uint hour, uint minute, uint second) public pure returns (uint timestamp) {\r\n        return BokkyPooBahsDateTimeLibrary.timestampFromDateTime(year, month, day, hour, minute, second);\r\n    }\r\n    function timestampToDate(uint timestamp) public pure returns (uint year, uint month, uint day) {\r\n        (year, month, day) = BokkyPooBahsDateTimeLibrary.timestampToDate(timestamp);\r\n    }\r\n    function timestampToDateTime(uint timestamp) public pure returns (uint year, uint month, uint day, uint hour, uint minute, uint second) {\r\n        (year, month, day, hour, minute, second) = BokkyPooBahsDateTimeLibrary.timestampToDateTime(timestamp);\r\n    }\r\n\r\n    function isValidDate(uint year, uint month, uint day) public pure returns (bool valid) {\r\n        valid = BokkyPooBahsDateTimeLibrary.isValidDate(year, month, day);\r\n    }\r\n    function isValidDateTime(uint year, uint month, uint day, uint hour, uint minute, uint second) public pure returns (bool valid) {\r\n        valid = BokkyPooBahsDateTimeLibrary.isValidDateTime(year, month, day, hour, minute, second);\r\n    }\r\n    function isLeapYear(uint timestamp) public pure returns (bool leapYear) {\r\n        leapYear = BokkyPooBahsDateTimeLibrary.isLeapYear(timestamp);\r\n    }\r\n    function _isLeapYear(uint year) public pure returns (bool leapYear) {\r\n        leapYear = BokkyPooBahsDateTimeLibrary._isLeapYear(year);\r\n    }\r\n    function isWeekDay(uint timestamp) public pure returns (bool weekDay) {\r\n        weekDay = BokkyPooBahsDateTimeLibrary.isWeekDay(timestamp);\r\n    }\r\n    function isWeekEnd(uint timestamp) public pure returns (bool weekEnd) {\r\n        weekEnd = BokkyPooBahsDateTimeLibrary.isWeekEnd(timestamp);\r\n    }\r\n\r\n    function getDaysInMonth(uint timestamp) public pure returns (uint daysInMonth) {\r\n        daysInMonth = BokkyPooBahsDateTimeLibrary.getDaysInMonth(timestamp);\r\n    }\r\n    function _getDaysInMonth(uint year, uint month) public pure returns (uint daysInMonth) {\r\n        daysInMonth = BokkyPooBahsDateTimeLibrary._getDaysInMonth(year, month);\r\n    }\r\n    function getDayOfWeek(uint timestamp) public pure returns (uint dayOfWeek) {\r\n        dayOfWeek = BokkyPooBahsDateTimeLibrary.getDayOfWeek(timestamp);\r\n    }\r\n\r\n    function getYear(uint timestamp) public pure returns (uint year) {\r\n        year = BokkyPooBahsDateTimeLibrary.getYear(timestamp);\r\n    }\r\n    function getMonth(uint timestamp) public pure returns (uint month) {\r\n        month = BokkyPooBahsDateTimeLibrary.getMonth(timestamp);\r\n    }\r\n    function getDay(uint timestamp) public pure returns (uint day) {\r\n        day = BokkyPooBahsDateTimeLibrary.getDay(timestamp);\r\n    }\r\n    function getHour(uint timestamp) public pure returns (uint hour) {\r\n        hour = BokkyPooBahsDateTimeLibrary.getHour(timestamp);\r\n    }\r\n    function getMinute(uint timestamp) public pure returns (uint minute) {\r\n        minute = BokkyPooBahsDateTimeLibrary.getMinute(timestamp);\r\n    }\r\n    function getSecond(uint timestamp) public pure returns (uint second) {\r\n        second = BokkyPooBahsDateTimeLibrary.getSecond(timestamp);\r\n    }\r\n\r\n    function addYears(uint timestamp, uint _years) public pure returns (uint newTimestamp) {\r\n        newTimestamp = BokkyPooBahsDateTimeLibrary.addYears(timestamp, _years);\r\n    }\r\n    function addMonths(uint timestamp, uint _months) public pure returns (uint newTimestamp) {\r\n        newTimestamp = BokkyPooBahsDateTimeLibrary.addMonths(timestamp, _months);\r\n    }\r\n    function addDays(uint timestamp, uint _days) public pure returns (uint newTimestamp) {\r\n        newTimestamp = BokkyPooBahsDateTimeLibrary.addDays(timestamp, _days);\r\n    }\r\n    function addHours(uint timestamp, uint _hours) public pure returns (uint newTimestamp) {\r\n        newTimestamp = BokkyPooBahsDateTimeLibrary.addHours(timestamp, _hours);\r\n    }\r\n    function addMinutes(uint timestamp, uint _minutes) public pure returns (uint newTimestamp) {\r\n        newTimestamp = BokkyPooBahsDateTimeLibrary.addMinutes(timestamp, _minutes);\r\n    }\r\n    function addSeconds(uint timestamp, uint _seconds) public pure returns (uint newTimestamp) {\r\n        newTimestamp = BokkyPooBahsDateTimeLibrary.addSeconds(timestamp, _seconds);\r\n    }\r\n\r\n    function subYears(uint timestamp, uint _years) public pure returns (uint newTimestamp) {\r\n        newTimestamp = BokkyPooBahsDateTimeLibrary.subYears(timestamp, _years);\r\n    }\r\n    function subMonths(uint timestamp, uint _months) public pure returns (uint newTimestamp) {\r\n        newTimestamp = BokkyPooBahsDateTimeLibrary.subMonths(timestamp, _months);\r\n    }\r\n    function subDays(uint timestamp, uint _days) public pure returns (uint newTimestamp) {\r\n        newTimestamp = BokkyPooBahsDateTimeLibrary.subDays(timestamp, _days);\r\n    }\r\n    function subHours(uint timestamp, uint _hours) public pure returns (uint newTimestamp) {\r\n        newTimestamp = BokkyPooBahsDateTimeLibrary.subHours(timestamp, _hours);\r\n    }\r\n    function subMinutes(uint timestamp, uint _minutes) public pure returns (uint newTimestamp) {\r\n        newTimestamp = BokkyPooBahsDateTimeLibrary.subMinutes(timestamp, _minutes);\r\n    }\r\n    function subSeconds(uint timestamp, uint _seconds) public pure returns (uint newTimestamp) {\r\n        newTimestamp = BokkyPooBahsDateTimeLibrary.subSeconds(timestamp, _seconds);\r\n    }\r\n\r\n    function diffYears(uint fromTimestamp, uint toTimestamp) public pure returns (uint _years) {\r\n        _years = BokkyPooBahsDateTimeLibrary.diffYears(fromTimestamp, toTimestamp);\r\n    }\r\n    function diffMonths(uint fromTimestamp, uint toTimestamp) public pure returns (uint _months) {\r\n        _months = BokkyPooBahsDateTimeLibrary.diffMonths(fromTimestamp, toTimestamp);\r\n    }\r\n    function diffDays(uint fromTimestamp, uint toTimestamp) public pure returns (uint _days) {\r\n        _days = BokkyPooBahsDateTimeLibrary.diffDays(fromTimestamp, toTimestamp);\r\n    }\r\n    function diffHours(uint fromTimestamp, uint toTimestamp) public pure returns (uint _hours) {\r\n        _hours = BokkyPooBahsDateTimeLibrary.diffHours(fromTimestamp, toTimestamp);\r\n    }\r\n    function diffMinutes(uint fromTimestamp, uint toTimestamp) public pure returns (uint _minutes) {\r\n        _minutes = BokkyPooBahsDateTimeLibrary.diffMinutes(fromTimestamp, toTimestamp);\r\n    }\r\n    function diffSeconds(uint fromTimestamp, uint toTimestamp) public pure returns (uint _seconds) {\r\n        _seconds = BokkyPooBahsDateTimeLibrary.diffSeconds(fromTimestamp, toTimestamp);\r\n    }\r\n}",
  "sourcePath": "C:/Users/outlet/Documents/Ivan on Tech/Medical Records Project/contracts/BokkyPooBahsDateTimeContract.sol",
  "compiler": {
    "name": "solc",
    "version": "0.8.1+commit.df193b15.Emscripten.clang"
  },
  "schemaVersion": "3.3.4",
  "updatedAt": "2021-04-22T01:27:22.291Z",
  "devdoc": {
    "kind": "dev",
    "methods": {},
    "version": 1
  },
  "userdoc": {
    "kind": "user",
    "methods": {},
    "version": 1
  }
}