{
  "contractName": "MedRec",
  "abi": [
    {
      "anonymous": false,
      "inputs": [
        {
          "indexed": false,
          "internalType": "address",
          "name": "party",
          "type": "address"
        }
      ],
      "name": "editorAdded",
      "type": "event"
    },
    {
      "anonymous": false,
      "inputs": [
        {
          "indexed": false,
          "internalType": "address",
          "name": "party",
          "type": "address"
        }
      ],
      "name": "editorRemoved",
      "type": "event"
    },
    {
      "anonymous": false,
      "inputs": [
        {
          "indexed": false,
          "internalType": "address",
          "name": "pers",
          "type": "address"
        }
      ],
      "name": "personCreatedOrUpdated",
      "type": "event"
    },
    {
      "anonymous": false,
      "inputs": [
        {
          "indexed": false,
          "internalType": "address",
          "name": "party",
          "type": "address"
        }
      ],
      "name": "viewerAdded",
      "type": "event"
    },
    {
      "anonymous": false,
      "inputs": [
        {
          "indexed": false,
          "internalType": "address",
          "name": "party",
          "type": "address"
        }
      ],
      "name": "viewerRemoved",
      "type": "event"
    },
    {
      "inputs": [],
      "name": "DOW_FRI",
      "outputs": [
        {
          "internalType": "uint256",
          "name": "",
          "type": "uint256"
        }
      ],
      "stateMutability": "view",
      "type": "function",
      "constant": true
    },
    {
      "inputs": [],
      "name": "DOW_MON",
      "outputs": [
        {
          "internalType": "uint256",
          "name": "",
          "type": "uint256"
        }
      ],
      "stateMutability": "view",
      "type": "function",
      "constant": true
    },
    {
      "inputs": [],
      "name": "DOW_SAT",
      "outputs": [
        {
          "internalType": "uint256",
          "name": "",
          "type": "uint256"
        }
      ],
      "stateMutability": "view",
      "type": "function",
      "constant": true
    },
    {
      "inputs": [],
      "name": "DOW_SUN",
      "outputs": [
        {
          "internalType": "uint256",
          "name": "",
          "type": "uint256"
        }
      ],
      "stateMutability": "view",
      "type": "function",
      "constant": true
    },
    {
      "inputs": [],
      "name": "DOW_THU",
      "outputs": [
        {
          "internalType": "uint256",
          "name": "",
          "type": "uint256"
        }
      ],
      "stateMutability": "view",
      "type": "function",
      "constant": true
    },
    {
      "inputs": [],
      "name": "DOW_TUE",
      "outputs": [
        {
          "internalType": "uint256",
          "name": "",
          "type": "uint256"
        }
      ],
      "stateMutability": "view",
      "type": "function",
      "constant": true
    },
    {
      "inputs": [],
      "name": "DOW_WED",
      "outputs": [
        {
          "internalType": "uint256",
          "name": "",
          "type": "uint256"
        }
      ],
      "stateMutability": "view",
      "type": "function",
      "constant": true
    },
    {
      "inputs": [],
      "name": "OFFSET19700101",
      "outputs": [
        {
          "internalType": "int256",
          "name": "",
          "type": "int256"
        }
      ],
      "stateMutability": "view",
      "type": "function",
      "constant": true
    },
    {
      "inputs": [],
      "name": "SECONDS_PER_DAY",
      "outputs": [
        {
          "internalType": "uint256",
          "name": "",
          "type": "uint256"
        }
      ],
      "stateMutability": "view",
      "type": "function",
      "constant": true
    },
    {
      "inputs": [],
      "name": "SECONDS_PER_HOUR",
      "outputs": [
        {
          "internalType": "uint256",
          "name": "",
          "type": "uint256"
        }
      ],
      "stateMutability": "view",
      "type": "function",
      "constant": true
    },
    {
      "inputs": [],
      "name": "SECONDS_PER_MINUTE",
      "outputs": [
        {
          "internalType": "uint256",
          "name": "",
          "type": "uint256"
        }
      ],
      "stateMutability": "view",
      "type": "function",
      "constant": true
    },
    {
      "inputs": [
        {
          "internalType": "uint256",
          "name": "year",
          "type": "uint256"
        },
        {
          "internalType": "uint256",
          "name": "month",
          "type": "uint256"
        },
        {
          "internalType": "uint256",
          "name": "day",
          "type": "uint256"
        }
      ],
      "name": "_daysFromDate",
      "outputs": [
        {
          "internalType": "uint256",
          "name": "_days",
          "type": "uint256"
        }
      ],
      "stateMutability": "pure",
      "type": "function",
      "constant": true
    },
    {
      "inputs": [
        {
          "internalType": "uint256",
          "name": "_days",
          "type": "uint256"
        }
      ],
      "name": "_daysToDate",
      "outputs": [
        {
          "internalType": "uint256",
          "name": "year",
          "type": "uint256"
        },
        {
          "internalType": "uint256",
          "name": "month",
          "type": "uint256"
        },
        {
          "internalType": "uint256",
          "name": "day",
          "type": "uint256"
        }
      ],
      "stateMutability": "pure",
      "type": "function",
      "constant": true
    },
    {
      "inputs": [
        {
          "internalType": "uint256",
          "name": "year",
          "type": "uint256"
        },
        {
          "internalType": "uint256",
          "name": "month",
          "type": "uint256"
        }
      ],
      "name": "_getDaysInMonth",
      "outputs": [
        {
          "internalType": "uint256",
          "name": "daysInMonth",
          "type": "uint256"
        }
      ],
      "stateMutability": "pure",
      "type": "function",
      "constant": true
    },
    {
      "inputs": [
        {
          "internalType": "uint256",
          "name": "year",
          "type": "uint256"
        }
      ],
      "name": "_isLeapYear",
      "outputs": [
        {
          "internalType": "bool",
          "name": "leapYear",
          "type": "bool"
        }
      ],
      "stateMutability": "pure",
      "type": "function",
      "constant": true
    },
    {
      "inputs": [],
      "name": "_now",
      "outputs": [
        {
          "internalType": "uint256",
          "name": "timestamp",
          "type": "uint256"
        }
      ],
      "stateMutability": "view",
      "type": "function",
      "constant": true
    },
    {
      "inputs": [],
      "name": "_nowDateTime",
      "outputs": [
        {
          "internalType": "uint256",
          "name": "year",
          "type": "uint256"
        },
        {
          "internalType": "uint256",
          "name": "month",
          "type": "uint256"
        },
        {
          "internalType": "uint256",
          "name": "day",
          "type": "uint256"
        },
        {
          "internalType": "uint256",
          "name": "hour",
          "type": "uint256"
        },
        {
          "internalType": "uint256",
          "name": "minute",
          "type": "uint256"
        },
        {
          "internalType": "uint256",
          "name": "second",
          "type": "uint256"
        }
      ],
      "stateMutability": "view",
      "type": "function",
      "constant": true
    },
    {
      "inputs": [
        {
          "internalType": "uint256",
          "name": "timestamp",
          "type": "uint256"
        },
        {
          "internalType": "uint256",
          "name": "_days",
          "type": "uint256"
        }
      ],
      "name": "addDays",
      "outputs": [
        {
          "internalType": "uint256",
          "name": "newTimestamp",
          "type": "uint256"
        }
      ],
      "stateMutability": "pure",
      "type": "function",
      "constant": true
    },
    {
      "inputs": [
        {
          "internalType": "uint256",
          "name": "timestamp",
          "type": "uint256"
        },
        {
          "internalType": "uint256",
          "name": "_hours",
          "type": "uint256"
        }
      ],
      "name": "addHours",
      "outputs": [
        {
          "internalType": "uint256",
          "name": "newTimestamp",
          "type": "uint256"
        }
      ],
      "stateMutability": "pure",
      "type": "function",
      "constant": true
    },
    {
      "inputs": [
        {
          "internalType": "uint256",
          "name": "timestamp",
          "type": "uint256"
        },
        {
          "internalType": "uint256",
          "name": "_minutes",
          "type": "uint256"
        }
      ],
      "name": "addMinutes",
      "outputs": [
        {
          "internalType": "uint256",
          "name": "newTimestamp",
          "type": "uint256"
        }
      ],
      "stateMutability": "pure",
      "type": "function",
      "constant": true
    },
    {
      "inputs": [
        {
          "internalType": "uint256",
          "name": "timestamp",
          "type": "uint256"
        },
        {
          "internalType": "uint256",
          "name": "_months",
          "type": "uint256"
        }
      ],
      "name": "addMonths",
      "outputs": [
        {
          "internalType": "uint256",
          "name": "newTimestamp",
          "type": "uint256"
        }
      ],
      "stateMutability": "pure",
      "type": "function",
      "constant": true
    },
    {
      "inputs": [
        {
          "internalType": "uint256",
          "name": "timestamp",
          "type": "uint256"
        },
        {
          "internalType": "uint256",
          "name": "_seconds",
          "type": "uint256"
        }
      ],
      "name": "addSeconds",
      "outputs": [
        {
          "internalType": "uint256",
          "name": "newTimestamp",
          "type": "uint256"
        }
      ],
      "stateMutability": "pure",
      "type": "function",
      "constant": true
    },
    {
      "inputs": [
        {
          "internalType": "uint256",
          "name": "timestamp",
          "type": "uint256"
        },
        {
          "internalType": "uint256",
          "name": "_years",
          "type": "uint256"
        }
      ],
      "name": "addYears",
      "outputs": [
        {
          "internalType": "uint256",
          "name": "newTimestamp",
          "type": "uint256"
        }
      ],
      "stateMutability": "pure",
      "type": "function",
      "constant": true
    },
    {
      "inputs": [
        {
          "internalType": "uint256",
          "name": "fromTimestamp",
          "type": "uint256"
        },
        {
          "internalType": "uint256",
          "name": "toTimestamp",
          "type": "uint256"
        }
      ],
      "name": "diffDays",
      "outputs": [
        {
          "internalType": "uint256",
          "name": "_days",
          "type": "uint256"
        }
      ],
      "stateMutability": "pure",
      "type": "function",
      "constant": true
    },
    {
      "inputs": [
        {
          "internalType": "uint256",
          "name": "fromTimestamp",
          "type": "uint256"
        },
        {
          "internalType": "uint256",
          "name": "toTimestamp",
          "type": "uint256"
        }
      ],
      "name": "diffHours",
      "outputs": [
        {
          "internalType": "uint256",
          "name": "_hours",
          "type": "uint256"
        }
      ],
      "stateMutability": "pure",
      "type": "function",
      "constant": true
    },
    {
      "inputs": [
        {
          "internalType": "uint256",
          "name": "fromTimestamp",
          "type": "uint256"
        },
        {
          "internalType": "uint256",
          "name": "toTimestamp",
          "type": "uint256"
        }
      ],
      "name": "diffMinutes",
      "outputs": [
        {
          "internalType": "uint256",
          "name": "_minutes",
          "type": "uint256"
        }
      ],
      "stateMutability": "pure",
      "type": "function",
      "constant": true
    },
    {
      "inputs": [
        {
          "internalType": "uint256",
          "name": "fromTimestamp",
          "type": "uint256"
        },
        {
          "internalType": "uint256",
          "name": "toTimestamp",
          "type": "uint256"
        }
      ],
      "name": "diffMonths",
      "outputs": [
        {
          "internalType": "uint256",
          "name": "_months",
          "type": "uint256"
        }
      ],
      "stateMutability": "pure",
      "type": "function",
      "constant": true
    },
    {
      "inputs": [
        {
          "internalType": "uint256",
          "name": "fromTimestamp",
          "type": "uint256"
        },
        {
          "internalType": "uint256",
          "name": "toTimestamp",
          "type": "uint256"
        }
      ],
      "name": "diffSeconds",
      "outputs": [
        {
          "internalType": "uint256",
          "name": "_seconds",
          "type": "uint256"
        }
      ],
      "stateMutability": "pure",
      "type": "function",
      "constant": true
    },
    {
      "inputs": [
        {
          "internalType": "uint256",
          "name": "fromTimestamp",
          "type": "uint256"
        },
        {
          "internalType": "uint256",
          "name": "toTimestamp",
          "type": "uint256"
        }
      ],
      "name": "diffYears",
      "outputs": [
        {
          "internalType": "uint256",
          "name": "_years",
          "type": "uint256"
        }
      ],
      "stateMutability": "pure",
      "type": "function",
      "constant": true
    },
    {
      "inputs": [
        {
          "internalType": "uint256",
          "name": "timestamp",
          "type": "uint256"
        }
      ],
      "name": "getDay",
      "outputs": [
        {
          "internalType": "uint256",
          "name": "day",
          "type": "uint256"
        }
      ],
      "stateMutability": "pure",
      "type": "function",
      "constant": true
    },
    {
      "inputs": [
        {
          "internalType": "uint256",
          "name": "timestamp",
          "type": "uint256"
        }
      ],
      "name": "getDayOfWeek",
      "outputs": [
        {
          "internalType": "uint256",
          "name": "dayOfWeek",
          "type": "uint256"
        }
      ],
      "stateMutability": "pure",
      "type": "function",
      "constant": true
    },
    {
      "inputs": [
        {
          "internalType": "uint256",
          "name": "timestamp",
          "type": "uint256"
        }
      ],
      "name": "getDaysInMonth",
      "outputs": [
        {
          "internalType": "uint256",
          "name": "daysInMonth",
          "type": "uint256"
        }
      ],
      "stateMutability": "pure",
      "type": "function",
      "constant": true
    },
    {
      "inputs": [
        {
          "internalType": "uint256",
          "name": "timestamp",
          "type": "uint256"
        }
      ],
      "name": "getHour",
      "outputs": [
        {
          "internalType": "uint256",
          "name": "hour",
          "type": "uint256"
        }
      ],
      "stateMutability": "pure",
      "type": "function",
      "constant": true
    },
    {
      "inputs": [
        {
          "internalType": "uint256",
          "name": "timestamp",
          "type": "uint256"
        }
      ],
      "name": "getMinute",
      "outputs": [
        {
          "internalType": "uint256",
          "name": "minute",
          "type": "uint256"
        }
      ],
      "stateMutability": "pure",
      "type": "function",
      "constant": true
    },
    {
      "inputs": [
        {
          "internalType": "uint256",
          "name": "timestamp",
          "type": "uint256"
        }
      ],
      "name": "getMonth",
      "outputs": [
        {
          "internalType": "uint256",
          "name": "month",
          "type": "uint256"
        }
      ],
      "stateMutability": "pure",
      "type": "function",
      "constant": true
    },
    {
      "inputs": [
        {
          "internalType": "uint256",
          "name": "timestamp",
          "type": "uint256"
        }
      ],
      "name": "getSecond",
      "outputs": [
        {
          "internalType": "uint256",
          "name": "second",
          "type": "uint256"
        }
      ],
      "stateMutability": "pure",
      "type": "function",
      "constant": true
    },
    {
      "inputs": [
        {
          "internalType": "uint256",
          "name": "timestamp",
          "type": "uint256"
        }
      ],
      "name": "getYear",
      "outputs": [
        {
          "internalType": "uint256",
          "name": "year",
          "type": "uint256"
        }
      ],
      "stateMutability": "pure",
      "type": "function",
      "constant": true
    },
    {
      "inputs": [
        {
          "internalType": "uint256",
          "name": "timestamp",
          "type": "uint256"
        }
      ],
      "name": "isLeapYear",
      "outputs": [
        {
          "internalType": "bool",
          "name": "leapYear",
          "type": "bool"
        }
      ],
      "stateMutability": "pure",
      "type": "function",
      "constant": true
    },
    {
      "inputs": [
        {
          "internalType": "uint256",
          "name": "year",
          "type": "uint256"
        },
        {
          "internalType": "uint256",
          "name": "month",
          "type": "uint256"
        },
        {
          "internalType": "uint256",
          "name": "day",
          "type": "uint256"
        }
      ],
      "name": "isValidDate",
      "outputs": [
        {
          "internalType": "bool",
          "name": "valid",
          "type": "bool"
        }
      ],
      "stateMutability": "pure",
      "type": "function",
      "constant": true
    },
    {
      "inputs": [
        {
          "internalType": "uint256",
          "name": "year",
          "type": "uint256"
        },
        {
          "internalType": "uint256",
          "name": "month",
          "type": "uint256"
        },
        {
          "internalType": "uint256",
          "name": "day",
          "type": "uint256"
        },
        {
          "internalType": "uint256",
          "name": "hour",
          "type": "uint256"
        },
        {
          "internalType": "uint256",
          "name": "minute",
          "type": "uint256"
        },
        {
          "internalType": "uint256",
          "name": "second",
          "type": "uint256"
        }
      ],
      "name": "isValidDateTime",
      "outputs": [
        {
          "internalType": "bool",
          "name": "valid",
          "type": "bool"
        }
      ],
      "stateMutability": "pure",
      "type": "function",
      "constant": true
    },
    {
      "inputs": [
        {
          "internalType": "uint256",
          "name": "timestamp",
          "type": "uint256"
        }
      ],
      "name": "isWeekDay",
      "outputs": [
        {
          "internalType": "bool",
          "name": "weekDay",
          "type": "bool"
        }
      ],
      "stateMutability": "pure",
      "type": "function",
      "constant": true
    },
    {
      "inputs": [
        {
          "internalType": "uint256",
          "name": "timestamp",
          "type": "uint256"
        }
      ],
      "name": "isWeekEnd",
      "outputs": [
        {
          "internalType": "bool",
          "name": "weekEnd",
          "type": "bool"
        }
      ],
      "stateMutability": "pure",
      "type": "function",
      "constant": true
    },
    {
      "inputs": [
        {
          "internalType": "uint256",
          "name": "timestamp",
          "type": "uint256"
        },
        {
          "internalType": "uint256",
          "name": "_days",
          "type": "uint256"
        }
      ],
      "name": "subDays",
      "outputs": [
        {
          "internalType": "uint256",
          "name": "newTimestamp",
          "type": "uint256"
        }
      ],
      "stateMutability": "pure",
      "type": "function",
      "constant": true
    },
    {
      "inputs": [
        {
          "internalType": "uint256",
          "name": "timestamp",
          "type": "uint256"
        },
        {
          "internalType": "uint256",
          "name": "_hours",
          "type": "uint256"
        }
      ],
      "name": "subHours",
      "outputs": [
        {
          "internalType": "uint256",
          "name": "newTimestamp",
          "type": "uint256"
        }
      ],
      "stateMutability": "pure",
      "type": "function",
      "constant": true
    },
    {
      "inputs": [
        {
          "internalType": "uint256",
          "name": "timestamp",
          "type": "uint256"
        },
        {
          "internalType": "uint256",
          "name": "_minutes",
          "type": "uint256"
        }
      ],
      "name": "subMinutes",
      "outputs": [
        {
          "internalType": "uint256",
          "name": "newTimestamp",
          "type": "uint256"
        }
      ],
      "stateMutability": "pure",
      "type": "function",
      "constant": true
    },
    {
      "inputs": [
        {
          "internalType": "uint256",
          "name": "timestamp",
          "type": "uint256"
        },
        {
          "internalType": "uint256",
          "name": "_months",
          "type": "uint256"
        }
      ],
      "name": "subMonths",
      "outputs": [
        {
          "internalType": "uint256",
          "name": "newTimestamp",
          "type": "uint256"
        }
      ],
      "stateMutability": "pure",
      "type": "function",
      "constant": true
    },
    {
      "inputs": [
        {
          "internalType": "uint256",
          "name": "timestamp",
          "type": "uint256"
        },
        {
          "internalType": "uint256",
          "name": "_seconds",
          "type": "uint256"
        }
      ],
      "name": "subSeconds",
      "outputs": [
        {
          "internalType": "uint256",
          "name": "newTimestamp",
          "type": "uint256"
        }
      ],
      "stateMutability": "pure",
      "type": "function",
      "constant": true
    },
    {
      "inputs": [
        {
          "internalType": "uint256",
          "name": "timestamp",
          "type": "uint256"
        },
        {
          "internalType": "uint256",
          "name": "_years",
          "type": "uint256"
        }
      ],
      "name": "subYears",
      "outputs": [
        {
          "internalType": "uint256",
          "name": "newTimestamp",
          "type": "uint256"
        }
      ],
      "stateMutability": "pure",
      "type": "function",
      "constant": true
    },
    {
      "inputs": [
        {
          "internalType": "uint256",
          "name": "year",
          "type": "uint256"
        },
        {
          "internalType": "uint256",
          "name": "month",
          "type": "uint256"
        },
        {
          "internalType": "uint256",
          "name": "day",
          "type": "uint256"
        }
      ],
      "name": "timestampFromDate",
      "outputs": [
        {
          "internalType": "uint256",
          "name": "timestamp",
          "type": "uint256"
        }
      ],
      "stateMutability": "pure",
      "type": "function",
      "constant": true
    },
    {
      "inputs": [
        {
          "internalType": "uint256",
          "name": "year",
          "type": "uint256"
        },
        {
          "internalType": "uint256",
          "name": "month",
          "type": "uint256"
        },
        {
          "internalType": "uint256",
          "name": "day",
          "type": "uint256"
        },
        {
          "internalType": "uint256",
          "name": "hour",
          "type": "uint256"
        },
        {
          "internalType": "uint256",
          "name": "minute",
          "type": "uint256"
        },
        {
          "internalType": "uint256",
          "name": "second",
          "type": "uint256"
        }
      ],
      "name": "timestampFromDateTime",
      "outputs": [
        {
          "internalType": "uint256",
          "name": "timestamp",
          "type": "uint256"
        }
      ],
      "stateMutability": "pure",
      "type": "function",
      "constant": true
    },
    {
      "inputs": [
        {
          "internalType": "uint256",
          "name": "timestamp",
          "type": "uint256"
        }
      ],
      "name": "timestampToDate",
      "outputs": [
        {
          "internalType": "uint256",
          "name": "year",
          "type": "uint256"
        },
        {
          "internalType": "uint256",
          "name": "month",
          "type": "uint256"
        },
        {
          "internalType": "uint256",
          "name": "day",
          "type": "uint256"
        }
      ],
      "stateMutability": "pure",
      "type": "function",
      "constant": true
    },
    {
      "inputs": [
        {
          "internalType": "uint256",
          "name": "timestamp",
          "type": "uint256"
        }
      ],
      "name": "timestampToDateTime",
      "outputs": [
        {
          "internalType": "uint256",
          "name": "year",
          "type": "uint256"
        },
        {
          "internalType": "uint256",
          "name": "month",
          "type": "uint256"
        },
        {
          "internalType": "uint256",
          "name": "day",
          "type": "uint256"
        },
        {
          "internalType": "uint256",
          "name": "hour",
          "type": "uint256"
        },
        {
          "internalType": "uint256",
          "name": "minute",
          "type": "uint256"
        },
        {
          "internalType": "uint256",
          "name": "second",
          "type": "uint256"
        }
      ],
      "stateMutability": "pure",
      "type": "function",
      "constant": true
    },
    {
      "inputs": [
        {
          "internalType": "string",
          "name": "_hashed_fullName_birthCountry_nationalID",
          "type": "string"
        },
        {
          "internalType": "uint256",
          "name": "_birthYear",
          "type": "uint256"
        },
        {
          "internalType": "uint256",
          "name": "_birthMonth",
          "type": "uint256"
        },
        {
          "internalType": "uint256",
          "name": "_birthDay",
          "type": "uint256"
        },
        {
          "internalType": "enum MedRec.Gender",
          "name": "_gender",
          "type": "uint8"
        }
      ],
      "name": "createEditPerson",
      "outputs": [],
      "stateMutability": "nonpayable",
      "type": "function"
    },
    {
      "inputs": [
        {
          "internalType": "address",
          "name": "_patient",
          "type": "address"
        }
      ],
      "name": "getPersonalData",
      "outputs": [
        {
          "internalType": "string",
          "name": "",
          "type": "string"
        },
        {
          "internalType": "uint256",
          "name": "",
          "type": "uint256"
        },
        {
          "internalType": "uint256",
          "name": "",
          "type": "uint256"
        },
        {
          "internalType": "uint256",
          "name": "",
          "type": "uint256"
        },
        {
          "internalType": "enum MedRec.Gender",
          "name": "",
          "type": "uint8"
        },
        {
          "internalType": "bytes32",
          "name": "",
          "type": "bytes32"
        },
        {
          "internalType": "bytes32[]",
          "name": "",
          "type": "bytes32[]"
        }
      ],
      "stateMutability": "view",
      "type": "function",
      "constant": true
    },
    {
      "inputs": [
        {
          "internalType": "address",
          "name": "_patient",
          "type": "address"
        }
      ],
      "name": "getCheckValueHistoryLength",
      "outputs": [
        {
          "internalType": "uint256",
          "name": "",
          "type": "uint256"
        }
      ],
      "stateMutability": "view",
      "type": "function",
      "constant": true
    },
    {
      "inputs": [
        {
          "internalType": "address",
          "name": "_patient",
          "type": "address"
        }
      ],
      "name": "getRecords",
      "outputs": [
        {
          "components": [
            {
              "internalType": "uint256",
              "name": "recordDate",
              "type": "uint256"
            },
            {
              "internalType": "address",
              "name": "recordCreator",
              "type": "address"
            },
            {
              "internalType": "string",
              "name": "description",
              "type": "string"
            },
            {
              "internalType": "string",
              "name": "extReferences",
              "type": "string"
            },
            {
              "internalType": "string",
              "name": "laboratoryResult",
              "type": "string"
            },
            {
              "internalType": "string",
              "name": "underlyingDisease_familyData_habitsAndOccupation",
              "type": "string"
            },
            {
              "internalType": "string",
              "name": "medicationOrVaccines",
              "type": "string"
            },
            {
              "internalType": "string",
              "name": "injury",
              "type": "string"
            },
            {
              "internalType": "string",
              "name": "surgery",
              "type": "string"
            },
            {
              "internalType": "string",
              "name": "other",
              "type": "string"
            }
          ],
          "internalType": "struct MedRec.MedicalRecord[]",
          "name": "",
          "type": "tuple[]"
        }
      ],
      "stateMutability": "view",
      "type": "function",
      "constant": true
    },
    {
      "inputs": [
        {
          "internalType": "address",
          "name": "_patient",
          "type": "address"
        },
        {
          "internalType": "string",
          "name": "_description",
          "type": "string"
        },
        {
          "internalType": "string",
          "name": "_extReferences",
          "type": "string"
        },
        {
          "internalType": "string",
          "name": "_laboratoryResult",
          "type": "string"
        },
        {
          "internalType": "string",
          "name": "_underlyingDisease_familyData_habitsAndOccupation",
          "type": "string"
        },
        {
          "internalType": "string",
          "name": "_medicationOrVaccines",
          "type": "string"
        },
        {
          "internalType": "string",
          "name": "_injury",
          "type": "string"
        },
        {
          "internalType": "string",
          "name": "_surgery",
          "type": "string"
        },
        {
          "internalType": "string",
          "name": "_other",
          "type": "string"
        }
      ],
      "name": "addMedicalRecord",
      "outputs": [],
      "stateMutability": "nonpayable",
      "type": "function"
    },
    {
      "inputs": [
        {
          "internalType": "bool",
          "name": "addRemove",
          "type": "bool"
        },
        {
          "internalType": "address",
          "name": "party",
          "type": "address"
        }
      ],
      "name": "viewerAddRemove",
      "outputs": [],
      "stateMutability": "nonpayable",
      "type": "function"
    },
    {
      "inputs": [
        {
          "internalType": "bool",
          "name": "addRemove",
          "type": "bool"
        },
        {
          "internalType": "address",
          "name": "party",
          "type": "address"
        }
      ],
      "name": "editorAddRemove",
      "outputs": [],
      "stateMutability": "nonpayable",
      "type": "function"
    },
    {
      "inputs": [],
      "name": "getYourViewers",
      "outputs": [
        {
          "internalType": "address[]",
          "name": "",
          "type": "address[]"
        }
      ],
      "stateMutability": "view",
      "type": "function",
      "constant": true
    },
    {
      "inputs": [],
      "name": "getYourEditors",
      "outputs": [
        {
          "internalType": "address[]",
          "name": "",
          "type": "address[]"
        }
      ],
      "stateMutability": "view",
      "type": "function",
      "constant": true
    }
  ],
  "bytecode": "0x608060405234801561001057600080fd5b50615b8d80620000216000396000f3fe608060405234801561001057600080fd5b50600436106103ae5760003560e01c806385a9b592116101f4578063b3bb8cd41161011a578063d6582d0d116100ad578063f615ed541161007c578063f615ed5414610d2b578063f9fd525014610d5b578063fa93f88314610d79578063ff2258cb14610da9576103ae565b8063d6582d0d14610c76578063de5101af14610ca6578063e955643014610cd8578063ea1c169014610cf6576103ae565b8063c7edf88c116100e9578063c7edf88c14610bec578063c9d3462214610c0a578063cfbb9f3714610c3a578063d2b5074314610c58576103ae565b8063b3bb8cd414610b3e578063b8d16dbc14610b5c578063bfa0fcae14610b8c578063c7b6fd6a14610bbc576103ae565b80639220d42611610192578063a324ad2411610161578063a324ad2414610a90578063a3f144ae14610ac0578063ad203bd414610ade578063b05eb08d14610b0e576103ae565b80639220d426146109dd57806392d6631314610a005780639e524caa14610a30578063a0076e8414610a60576103ae565b80638bbf51b7116101ce5780638bbf51b71461093f5780638d4a2d391461095d5780638fd90f671461098d57806390059aed146109ab576103ae565b806385a9b592146108c357806389a3a00d146108df5780638aa001fc1461090f576103ae565b80633f9e0eb7116102d95780634df861261161027757806365c728401161024657806365c72840146108155780637217523c1461084557806374f0314f146108755780637be3410914610893576103ae565b80634df8612614610779578063518208e3146107975780635e05bd6d146107b557806362fb9697146107e5576103ae565b8063442b8c79116102b3578063442b8c79146106cd578063444fda82146106fd5780634a1038ff1461072d5780634b32150214610749576103ae565b80633f9e0eb71461063d5780634355644d1461066d5780634371c4651461069d576103ae565b80631f4f77b2116103515780632af123b8116103205780632af123b8146105915780633293d007146105c15780633e239e1a146105f15780633ea97fa814610621576103ae565b80631f4f77b2146104dd57806322df6d241461050d57806322f8a2b8146105435780632944167414610573576103ae565b806310848ddf1161038d57806310848ddf1461042f578063126702a01461045f57806314b2d6dc1461047d5780631e0582e9146104ad576103ae565b8062501553146103b357806302e98e0d146103e35780630a2b192214610413575b600080fd5b6103cd60048036038101906103c89190614704565b610dd9565b6040516103da9190614fb8565b60405180910390f35b6103fd60048036038101906103f89190614704565b610ded565b60405161040a9190614fb8565b60405180910390f35b61042d60048036038101906104289190614610565b610e01565b005b610449600480360381019061044491906146db565b611558565b6040516104569190614fb8565b60405180910390f35b61046761156a565b6040516104749190614fb8565b60405180910390f35b61049760048036038101906104929190614740565b61156f565b6040516104a49190614de5565b60405180910390f35b6104c760048036038101906104c29190614740565b611585565b6040516104d49190614fb8565b60405180910390f35b6104f760048036038101906104f29190614740565b61159b565b6040516105049190614fb8565b60405180910390f35b61052760048036038101906105229190614461565b6115b1565b60405161053a9796959493929190614e1b565b60405180910390f35b61055d600480360381019061055891906146db565b61195f565b60405161056a9190614fb8565b60405180910390f35b61057b611971565b6040516105889190614fb8565b60405180910390f35b6105ab60048036038101906105a69190614704565b611976565b6040516105b89190614fb8565b60405180910390f35b6105db60048036038101906105d6919061478f565b61198a565b6040516105e89190614de5565b60405180910390f35b61060b600480360381019061060691906146db565b6119a6565b6040516106189190614fb8565b60405180910390f35b61063b6004803603810190610636919061464c565b6119b8565b005b61065760048036038101906106529190614704565b611f29565b6040516106649190614fb8565b60405180910390f35b61068760048036038101906106829190614704565b611f3d565b6040516106949190614fb8565b60405180910390f35b6106b760048036038101906106b291906146db565b611f51565b6040516106c49190614de5565b60405180910390f35b6106e760048036038101906106e29190614704565b611f63565b6040516106f49190614fb8565b60405180910390f35b61071760048036038101906107129190614704565b611f77565b6040516107249190614fb8565b60405180910390f35b61074760048036038101906107429190614610565b611f8b565b005b610763600480360381019061075e9190614704565b6126e2565b6040516107709190614fb8565b60405180910390f35b6107816126f6565b60405161078e9190614fb8565b60405180910390f35b61079f6126fc565b6040516107ac9190614da1565b60405180910390f35b6107cf60048036038101906107ca919061478f565b6127c9565b6040516107dc9190614fb8565b60405180910390f35b6107ff60048036038101906107fa9190614704565b6127e5565b60405161080c9190614fb8565b60405180910390f35b61082f600480360381019061082a91906146db565b6127f9565b60405161083c9190614fb8565b60405180910390f35b61085f600480360381019061085a9190614704565b61280b565b60405161086c9190614fb8565b60405180910390f35b61087d61281f565b60405161088a9190614fb8565b60405180910390f35b6108ad60048036038101906108a89190614704565b612826565b6040516108ba9190614fb8565b60405180910390f35b6108dd60048036038101906108d8919061448a565b61283a565b005b6108f960048036038101906108f49190614704565b612bd9565b6040516109069190614fb8565b60405180910390f35b610929600480360381019061092491906146db565b612bed565b6040516109369190614fb8565b60405180910390f35b610947612bff565b6040516109549190614fb8565b60405180910390f35b61097760048036038101906109729190614704565b612c04565b6040516109849190614fb8565b60405180910390f35b610995612c18565b6040516109a29190614da1565b60405180910390f35b6109c560048036038101906109c091906146db565b612ce5565b6040516109d493929190614fd3565b60405180910390f35b6109e5612d00565b6040516109f79695949392919061500a565b60405180910390f35b610a1a6004803603810190610a1591906146db565b612d32565b604051610a279190614fb8565b60405180910390f35b610a4a6004803603810190610a459190614704565b612d44565b604051610a579190614fb8565b60405180910390f35b610a7a6004803603810190610a759190614461565b612d58565b604051610a879190614dc3565b60405180910390f35b610aaa6004803603810190610aa591906146db565b6133bb565b604051610ab79190614fb8565b60405180910390f35b610ac86133cd565b604051610ad59190614e00565b60405180910390f35b610af86004803603810190610af39190614704565b6133d4565b604051610b059190614fb8565b60405180910390f35b610b286004803603810190610b2391906146db565b6133e8565b604051610b359190614de5565b60405180910390f35b610b466133fa565b604051610b539190614fb8565b60405180910390f35b610b766004803603810190610b7191906146db565b613402565b604051610b839190614de5565b60405180910390f35b610ba66004803603810190610ba19190614461565b613414565b604051610bb39190614fb8565b60405180910390f35b610bd66004803603810190610bd19190614704565b613467565b604051610be39190614fb8565b60405180910390f35b610bf461347b565b604051610c019190614fb8565b60405180910390f35b610c246004803603810190610c1f9190614704565b613480565b604051610c319190614fb8565b60405180910390f35b610c42613494565b604051610c4f9190614fb8565b60405180910390f35b610c60613499565b604051610c6d9190614fb8565b60405180910390f35b610c906004803603810190610c8b91906146db565b61349e565b604051610c9d9190614de5565b60405180910390f35b610cc06004803603810190610cbb91906146db565b6134b0565b604051610ccf93929190614fd3565b60405180910390f35b610ce06134d1565b604051610ced9190614fb8565b60405180910390f35b610d106004803603810190610d0b91906146db565b6134d6565b604051610d229695949392919061500a565b60405180910390f35b610d456004803603810190610d409190614704565b613509565b604051610d529190614fb8565b60405180910390f35b610d6361351d565b604051610d709190614fb8565b60405180910390f35b610d936004803603810190610d8e91906146db565b613522565b604051610da09190614fb8565b60405180910390f35b610dc36004803603810190610dbe9190614704565b613534565b604051610dd09190614fb8565b60405180910390f35b6000610de58383613548565b905092915050565b6000610df98383613578565b905092915050565b60011515821515141561105557600015156000803373ffffffffffffffffffffffffffffffffffffffff1673ffffffffffffffffffffffffffffffffffffffff168152602001908152602001600020600a0160008373ffffffffffffffffffffffffffffffffffffffff1673ffffffffffffffffffffffffffffffffffffffff16815260200190815260200160002060009054906101000a900460ff16151514610ee0576040517f08c379a0000000000000000000000000000000000000000000000000000000008152600401610ed790614f18565b60405180910390fd5b6000803373ffffffffffffffffffffffffffffffffffffffff1673ffffffffffffffffffffffffffffffffffffffff168152602001908152602001600020600901819080600181540180825580915050600190039060005260206000200160009091909190916101000a81548173ffffffffffffffffffffffffffffffffffffffff021916908373ffffffffffffffffffffffffffffffffffffffff16021790555060016000803373ffffffffffffffffffffffffffffffffffffffff1673ffffffffffffffffffffffffffffffffffffffff168152602001908152602001600020600a0160008373ffffffffffffffffffffffffffffffffffffffff1673ffffffffffffffffffffffffffffffffffffffff16815260200190815260200160002060006101000a81548160ff0219169083151502179055507f2d84cbec7ac0a57fef7c929269c84da3565c405f8f7d0085716d1515684fc526816040516110489190614d86565b60405180910390a1611554565b60008060003373ffffffffffffffffffffffffffffffffffffffff1673ffffffffffffffffffffffffffffffffffffffff168152602001908152602001600020600901805490509050600115156000803373ffffffffffffffffffffffffffffffffffffffff1673ffffffffffffffffffffffffffffffffffffffff168152602001908152602001600020600a0160008473ffffffffffffffffffffffffffffffffffffffff1673ffffffffffffffffffffffffffffffffffffffff16815260200190815260200160002060009054906101000a900460ff16151514611170576040517f08c379a000000000000000000000000000000000000000000000000000000000815260040161116790614ed8565b60405180910390fd5b60005b81811015611551578273ffffffffffffffffffffffffffffffffffffffff166000803373ffffffffffffffffffffffffffffffffffffffff1673ffffffffffffffffffffffffffffffffffffffff168152602001908152602001600020600901828154811061120b577f4e487b7100000000000000000000000000000000000000000000000000000000600052603260045260246000fd5b9060005260206000200160009054906101000a900473ffffffffffffffffffffffffffffffffffffffff1673ffffffffffffffffffffffffffffffffffffffff16141561153e576000803373ffffffffffffffffffffffffffffffffffffffff1673ffffffffffffffffffffffffffffffffffffffff1681526020019081526020016000206009016001836112a0919061552e565b815481106112d7577f4e487b7100000000000000000000000000000000000000000000000000000000600052603260045260246000fd5b9060005260206000200160009054906101000a900473ffffffffffffffffffffffffffffffffffffffff166000803373ffffffffffffffffffffffffffffffffffffffff1673ffffffffffffffffffffffffffffffffffffffff168152602001908152602001600020600901828154811061137b577f4e487b7100000000000000000000000000000000000000000000000000000000600052603260045260246000fd5b9060005260206000200160006101000a81548173ffffffffffffffffffffffffffffffffffffffff021916908373ffffffffffffffffffffffffffffffffffffffff1602179055506000803373ffffffffffffffffffffffffffffffffffffffff1673ffffffffffffffffffffffffffffffffffffffff16815260200190815260200160002060090180548061143a577f4e487b7100000000000000000000000000000000000000000000000000000000600052603160045260246000fd5b6001900381819060005260206000200160006101000a81549073ffffffffffffffffffffffffffffffffffffffff0219169055905560008060003373ffffffffffffffffffffffffffffffffffffffff1673ffffffffffffffffffffffffffffffffffffffff168152602001908152602001600020600a0160008573ffffffffffffffffffffffffffffffffffffffff1673ffffffffffffffffffffffffffffffffffffffff16815260200190815260200160002060006101000a81548160ff0219169083151502179055507fd4171a11211eba231b1442b123769e3860cbb17760762b36a2396800a13c0efb836040516115359190614d86565b60405180910390a15b808061154990615688565b915050611173565b50505b5050565b6000611563826135a7565b9050919050565b600281565b600061157c8484846135db565b90509392505050565b6000611592848484613632565b90509392505050565b60006115a8848484613791565b90509392505050565b606060008060008060006060600115156000808a73ffffffffffffffffffffffffffffffffffffffff1673ffffffffffffffffffffffffffffffffffffffff168152602001908152602001600020600a0160003373ffffffffffffffffffffffffffffffffffffffff1673ffffffffffffffffffffffffffffffffffffffff16815260200190815260200160002060009054906101000a900460ff1615151461168f576040517f08c379a000000000000000000000000000000000000000000000000000000000815260040161168690614f38565b60405180910390fd5b6000808973ffffffffffffffffffffffffffffffffffffffff1673ffffffffffffffffffffffffffffffffffffffff1681526020019081526020016000206000016000808a73ffffffffffffffffffffffffffffffffffffffff1673ffffffffffffffffffffffffffffffffffffffff168152602001908152602001600020600101546000808b73ffffffffffffffffffffffffffffffffffffffff1673ffffffffffffffffffffffffffffffffffffffff168152602001908152602001600020600201546000808c73ffffffffffffffffffffffffffffffffffffffff1673ffffffffffffffffffffffffffffffffffffffff168152602001908152602001600020600301546000808d73ffffffffffffffffffffffffffffffffffffffff1673ffffffffffffffffffffffffffffffffffffffff16815260200190815260200160002060040160009054906101000a900460ff166000808e73ffffffffffffffffffffffffffffffffffffffff1673ffffffffffffffffffffffffffffffffffffffff168152602001908152602001600020600501546000808f73ffffffffffffffffffffffffffffffffffffffff1673ffffffffffffffffffffffffffffffffffffffff16815260200190815260200160002060060186805461187490615625565b80601f01602080910402602001604051908101604052809291908181526020018280546118a090615625565b80156118ed5780601f106118c2576101008083540402835291602001916118ed565b820191906000526020600020905b8154815290600101906020018083116118d057829003601f168201915b505050505096508080548060200260200160405190810160405280929190818152602001828054801561193f57602002820191906000526020600020905b81548152602001906001019080831161192b575b505050505090509650965096509650965096509650919395979092949650565b600061196a826137b5565b9050919050565b600781565b600061198283836137f6565b905092915050565b600061199a878787878787613826565b90509695505050505050565b60006119b182613869565b9050919050565b6119c384848461156f565b611a02576040517f08c379a00000000000000000000000000000000000000000000000000000000081526004016119f990614f98565b60405180910390fd5b42611a0e85858561159b565b1115611a4f576040517f08c379a0000000000000000000000000000000000000000000000000000000008152600401611a4690614e98565b60405180910390fd5b846000803373ffffffffffffffffffffffffffffffffffffffff1673ffffffffffffffffffffffffffffffffffffffff1681526020019081526020016000206000019080519060200190611aa4929190614299565b50836000803373ffffffffffffffffffffffffffffffffffffffff1673ffffffffffffffffffffffffffffffffffffffff16815260200190815260200160002060010181905550826000803373ffffffffffffffffffffffffffffffffffffffff1673ffffffffffffffffffffffffffffffffffffffff16815260200190815260200160002060020181905550816000803373ffffffffffffffffffffffffffffffffffffffff1673ffffffffffffffffffffffffffffffffffffffff16815260200190815260200160002060030181905550806000803373ffffffffffffffffffffffffffffffffffffffff1673ffffffffffffffffffffffffffffffffffffffff16815260200190815260200160002060040160006101000a81548160ff02191690836002811115611c01577f4e487b7100000000000000000000000000000000000000000000000000000000600052602160045260246000fd5b0217905550336000803373ffffffffffffffffffffffffffffffffffffffff1673ffffffffffffffffffffffffffffffffffffffff16815260200190815260200160002060080160006101000a81548173ffffffffffffffffffffffffffffffffffffffff021916908373ffffffffffffffffffffffffffffffffffffffff1602179055508484848484604051602001611c9f959493929190614d2b565b604051602081830303815290604052805190602001206000803373ffffffffffffffffffffffffffffffffffffffff1673ffffffffffffffffffffffffffffffffffffffff168152602001908152602001600020600501819055506000803373ffffffffffffffffffffffffffffffffffffffff1673ffffffffffffffffffffffffffffffffffffffff1681526020019081526020016000206006016000803373ffffffffffffffffffffffffffffffffffffffff1673ffffffffffffffffffffffffffffffffffffffff168152602001908152602001600020600501549080600181540180825580915050600190039060005260206000200160009091909190915055600015156000803373ffffffffffffffffffffffffffffffffffffffff1673ffffffffffffffffffffffffffffffffffffffff168152602001908152602001600020600a0160003373ffffffffffffffffffffffffffffffffffffffff1673ffffffffffffffffffffffffffffffffffffffff16815260200190815260200160002060009054906101000a900460ff1615151415611e4757611e46600133610e01565b5b600015156000803373ffffffffffffffffffffffffffffffffffffffff1673ffffffffffffffffffffffffffffffffffffffff168152602001908152602001600020600c0160003373ffffffffffffffffffffffffffffffffffffffff1673ffffffffffffffffffffffffffffffffffffffff16815260200190815260200160002060009054906101000a900460ff1615151415611eeb57611eea600133611f8b565b5b7fd282fb125c407e424f1903c2c871b6edd6a628060d0386f558508c13de876ec733604051611f1a9190614d86565b60405180910390a15050505050565b6000611f358383613893565b905092915050565b6000611f49838361391e565b905092915050565b6000611f5c82613a01565b9050919050565b6000611f6f8383613a17565b905092915050565b6000611f838383613aad565b905092915050565b6001151582151514156121df57600015156000803373ffffffffffffffffffffffffffffffffffffffff1673ffffffffffffffffffffffffffffffffffffffff168152602001908152602001600020600c0160008373ffffffffffffffffffffffffffffffffffffffff1673ffffffffffffffffffffffffffffffffffffffff16815260200190815260200160002060009054906101000a900460ff1615151461206a576040517f08c379a000000000000000000000000000000000000000000000000000000000815260040161206190614ef8565b60405180910390fd5b6000803373ffffffffffffffffffffffffffffffffffffffff1673ffffffffffffffffffffffffffffffffffffffff168152602001908152602001600020600b01819080600181540180825580915050600190039060005260206000200160009091909190916101000a81548173ffffffffffffffffffffffffffffffffffffffff021916908373ffffffffffffffffffffffffffffffffffffffff16021790555060016000803373ffffffffffffffffffffffffffffffffffffffff1673ffffffffffffffffffffffffffffffffffffffff168152602001908152602001600020600c0160008373ffffffffffffffffffffffffffffffffffffffff1673ffffffffffffffffffffffffffffffffffffffff16815260200190815260200160002060006101000a81548160ff0219169083151502179055507f1328586b90cda9d90fc5f4d4ff9f51066aa234fe330e80d5096689f11e4065d1816040516121d29190614d86565b60405180910390a16126de565b60008060003373ffffffffffffffffffffffffffffffffffffffff1673ffffffffffffffffffffffffffffffffffffffff168152602001908152602001600020600b01805490509050600115156000803373ffffffffffffffffffffffffffffffffffffffff1673ffffffffffffffffffffffffffffffffffffffff168152602001908152602001600020600c0160008473ffffffffffffffffffffffffffffffffffffffff1673ffffffffffffffffffffffffffffffffffffffff16815260200190815260200160002060009054906101000a900460ff161515146122fa576040517f08c379a00000000000000000000000000000000000000000000000000000000081526004016122f190614f58565b60405180910390fd5b60005b818110156126db578273ffffffffffffffffffffffffffffffffffffffff166000803373ffffffffffffffffffffffffffffffffffffffff1673ffffffffffffffffffffffffffffffffffffffff168152602001908152602001600020600b018281548110612395577f4e487b7100000000000000000000000000000000000000000000000000000000600052603260045260246000fd5b9060005260206000200160009054906101000a900473ffffffffffffffffffffffffffffffffffffffff1673ffffffffffffffffffffffffffffffffffffffff1614156126c8576000803373ffffffffffffffffffffffffffffffffffffffff1673ffffffffffffffffffffffffffffffffffffffff168152602001908152602001600020600b0160018361242a919061552e565b81548110612461577f4e487b7100000000000000000000000000000000000000000000000000000000600052603260045260246000fd5b9060005260206000200160009054906101000a900473ffffffffffffffffffffffffffffffffffffffff166000803373ffffffffffffffffffffffffffffffffffffffff1673ffffffffffffffffffffffffffffffffffffffff168152602001908152602001600020600b018281548110612505577f4e487b7100000000000000000000000000000000000000000000000000000000600052603260045260246000fd5b9060005260206000200160006101000a81548173ffffffffffffffffffffffffffffffffffffffff021916908373ffffffffffffffffffffffffffffffffffffffff1602179055506000803373ffffffffffffffffffffffffffffffffffffffff1673ffffffffffffffffffffffffffffffffffffffff168152602001908152602001600020600b018054806125c4577f4e487b7100000000000000000000000000000000000000000000000000000000600052603160045260246000fd5b6001900381819060005260206000200160006101000a81549073ffffffffffffffffffffffffffffffffffffffff0219169055905560008060003373ffffffffffffffffffffffffffffffffffffffff1673ffffffffffffffffffffffffffffffffffffffff168152602001908152602001600020600c0160008573ffffffffffffffffffffffffffffffffffffffff1673ffffffffffffffffffffffffffffffffffffffff16815260200190815260200160002060006101000a81548160ff0219169083151502179055507f9c392ecde9b2303213c02cc522c8a8d9358613dd6d5991dd1bf41cc4d4fb25cb836040516126bf9190614d86565b60405180910390a15b80806126d390615688565b9150506122fd565b50505b5050565b60006126ee8383613b43565b905092915050565b610e1081565b60606000803373ffffffffffffffffffffffffffffffffffffffff1673ffffffffffffffffffffffffffffffffffffffff168152602001908152602001600020600b018054806020026020016040519081016040528092919081815260200182805480156127bf57602002820191906000526020600020905b8160009054906101000a900473ffffffffffffffffffffffffffffffffffffffff1673ffffffffffffffffffffffffffffffffffffffff1681526020019060010190808311612775575b5050505050905090565b60006127d9878787878787613b73565b90509695505050505050565b60006127f18383613bd4565b905092915050565b600061280482613bf7565b9050919050565b60006128178383613c1e565b905092915050565b6201518081565b60006128328383613c4f565b905092915050565b600115156000808b73ffffffffffffffffffffffffffffffffffffffff1673ffffffffffffffffffffffffffffffffffffffff168152602001908152602001600020600c0160003373ffffffffffffffffffffffffffffffffffffffff1673ffffffffffffffffffffffffffffffffffffffff16815260200190815260200160002060009054906101000a900460ff1615151461290c576040517f08c379a000000000000000000000000000000000000000000000000000000000815260040161290390614f78565b60405180910390fd5b60008060008b73ffffffffffffffffffffffffffffffffffffffff1673ffffffffffffffffffffffffffffffffffffffff168152602001908152602001600020600301541415612991576040517f08c379a000000000000000000000000000000000000000000000000000000000815260040161298890614eb8565b60405180910390fd5b61299961431f565b4281600001818152505033816020019073ffffffffffffffffffffffffffffffffffffffff16908173ffffffffffffffffffffffffffffffffffffffff1681525050888160400181905250878160600181905250868160800181905250858160a00181905250848160c00181905250838160e0018190525082816101000181905250818161012001819052506000808b73ffffffffffffffffffffffffffffffffffffffff1673ffffffffffffffffffffffffffffffffffffffff1681526020019081526020016000206007018190806001815401808255809150506001900390600052602060002090600a02016000909190919091506000820151816000015560208201518160010160006101000a81548173ffffffffffffffffffffffffffffffffffffffff021916908373ffffffffffffffffffffffffffffffffffffffff1602179055506040820151816002019080519060200190612afd929190614299565b506060820151816003019080519060200190612b1a929190614299565b506080820151816004019080519060200190612b37929190614299565b5060a0820151816005019080519060200190612b54929190614299565b5060c0820151816006019080519060200190612b71929190614299565b5060e0820151816007019080519060200190612b8e929190614299565b50610100820151816008019080519060200190612bac929190614299565b50610120820151816009019080519060200190612bca929190614299565b50505050505050505050505050565b6000612be58383613ce2565b905092915050565b6000612bf882613d11565b9050919050565b600381565b6000612c108383613d27565b905092915050565b60606000803373ffffffffffffffffffffffffffffffffffffffff1673ffffffffffffffffffffffffffffffffffffffff168152602001908152602001600020600901805480602002602001604051908101604052809291908181526020018280548015612cdb57602002820191906000526020600020905b8160009054906101000a900473ffffffffffffffffffffffffffffffffffffffff1673ffffffffffffffffffffffffffffffffffffffff1681526020019060010190808311612c91575b5050505050905090565b6000806000612cf384613d4a565b9250925092509193909250565b600080600080600080612d1242613ee9565b809650819750829850839950849a50859b50505050505050909192939495565b6000612d3d82613f70565b9050919050565b6000612d508383613f95565b905092915050565b6060600115156000808473ffffffffffffffffffffffffffffffffffffffff1673ffffffffffffffffffffffffffffffffffffffff168152602001908152602001600020600a0160003373ffffffffffffffffffffffffffffffffffffffff1673ffffffffffffffffffffffffffffffffffffffff16815260200190815260200160002060009054906101000a900460ff16151514612e2c576040517f08c379a0000000000000000000000000000000000000000000000000000000008152600401612e2390614f38565b60405180910390fd5b6000808373ffffffffffffffffffffffffffffffffffffffff1673ffffffffffffffffffffffffffffffffffffffff168152602001908152602001600020600701805480602002602001604051908101604052809291908181526020016000905b828210156133b057838290600052602060002090600a020160405180610140016040529081600082015481526020016001820160009054906101000a900473ffffffffffffffffffffffffffffffffffffffff1673ffffffffffffffffffffffffffffffffffffffff1673ffffffffffffffffffffffffffffffffffffffff168152602001600282018054612f2190615625565b80601f0160208091040260200160405190810160405280929190818152602001828054612f4d90615625565b8015612f9a5780601f10612f6f57610100808354040283529160200191612f9a565b820191906000526020600020905b815481529060010190602001808311612f7d57829003601f168201915b50505050508152602001600382018054612fb390615625565b80601f0160208091040260200160405190810160405280929190818152602001828054612fdf90615625565b801561302c5780601f106130015761010080835404028352916020019161302c565b820191906000526020600020905b81548152906001019060200180831161300f57829003601f168201915b5050505050815260200160048201805461304590615625565b80601f016020809104026020016040519081016040528092919081815260200182805461307190615625565b80156130be5780601f10613093576101008083540402835291602001916130be565b820191906000526020600020905b8154815290600101906020018083116130a157829003601f168201915b505050505081526020016005820180546130d790615625565b80601f016020809104026020016040519081016040528092919081815260200182805461310390615625565b80156131505780601f1061312557610100808354040283529160200191613150565b820191906000526020600020905b81548152906001019060200180831161313357829003601f168201915b5050505050815260200160068201805461316990615625565b80601f016020809104026020016040519081016040528092919081815260200182805461319590615625565b80156131e25780601f106131b7576101008083540402835291602001916131e2565b820191906000526020600020905b8154815290600101906020018083116131c557829003601f168201915b505050505081526020016007820180546131fb90615625565b80601f016020809104026020016040519081016040528092919081815260200182805461322790615625565b80156132745780601f1061324957610100808354040283529160200191613274565b820191906000526020600020905b81548152906001019060200180831161325757829003601f168201915b5050505050815260200160088201805461328d90615625565b80601f01602080910402602001604051908101604052809291908181526020018280546132b990615625565b80156133065780601f106132db57610100808354040283529160200191613306565b820191906000526020600020905b8154815290600101906020018083116132e957829003601f168201915b5050505050815260200160098201805461331f90615625565b80601f016020809104026020016040519081016040528092919081815260200182805461334b90615625565b80156133985780601f1061336d57610100808354040283529160200191613398565b820191906000526020600020905b81548152906001019060200180831161337b57829003601f168201915b50505050508152505081526020019060010190612e8d565b505050509050919050565b60006133c682613fc4565b9050919050565b62253d8c81565b60006133e08383613fea565b905092915050565b60006133f3826140d0565b9050919050565b600042905090565b600061340d82614119565b9050919050565b6000806000808473ffffffffffffffffffffffffffffffffffffffff1673ffffffffffffffffffffffffffffffffffffffff16815260200190815260200160002060060180549050905080915050919050565b60006134738383614148565b905092915050565b600681565b600061348c8383614179565b905092915050565b600481565b600581565b60006134a9826141aa565b9050919050565b60008060006134be846141c0565b8093508194508295505050509193909250565b603c81565b6000806000806000806134e887613ee9565b809650819750829850839950849a50859b5050505050505091939550919395565b600061351583836141ef565b905092915050565b600181565b600061352d82614212565b9050919050565b6000613540838361423a565b905092915050565b6000610e10826135589190615440565b83613563919061552e565b90508281111561357257600080fd5b92915050565b60008183111561358757600080fd5b603c8383613595919061552e565b61359f91906152f8565b905092915050565b60008060006135c362015180856135be91906152f8565b613d4a565b50915091506135d28282613893565b92505050919050565b60006107b284101580156135ef5750600083115b80156135fc5750600c8311155b1561362b57600061360d8585613893565b905060008311801561361f5750808311155b1561362957600191505b505b9392505050565b60006107b284101561364357600080fd5b600084905060008490506000849050600062253d8c60046064600c600e8761366b919061549a565b613675919061528e565b6113248861368391906151a4565b61368d91906151a4565b613697919061528e565b60036136a39190615329565b6136ad919061528e565b600c80600c600e886136bf919061549a565b6136c9919061528e565b6136d39190615329565b6002876136e0919061549a565b6136ea919061549a565b61016f6136f79190615329565b613701919061528e565b6004600c600e88613712919061549a565b61371c919061528e565b6112c08961372a91906151a4565b61373491906151a4565b6105b56137419190615329565b61374b919061528e565b617d4b86613759919061549a565b61376391906151a4565b61376d91906151a4565b613777919061549a565b613781919061549a565b9050809450505050509392505050565b6000620151806137a2858585613632565b6137ac9190615440565b90509392505050565b60008062015180836137c791906152f8565b9050600160076003836137da9190615238565b6137e491906156ed565b6137ee9190615238565b915050919050565b60008183111561380557600080fd5b610e108383613814919061552e565b61381e91906152f8565b905092915050565b60006138338787876135db565b1561385f576018841080156138485750603c83105b80156138545750603c82105b1561385e57600190505b5b9695505050505050565b600080620151808361387b91906156ed565b9050610e108161388b91906152f8565b915050919050565b600060018214806138a45750600382145b806138af5750600582145b806138ba5750600782145b806138c55750600882145b806138d05750600a82145b806138db5750600c82145b156138e957601f9050613918565b600282146138fa57601e9050613917565b613903836140d0565b61390e57601c613911565b601d5b60ff1690505b5b92915050565b60008060008061393b620151808761393691906152f8565b613d4a565b925092509250848261394d9190615238565b9150600c60018361395e919061552e565b61396891906152f8565b836139739190615238565b92506001600c600184613986919061552e565b61399091906156ed565b61399a9190615238565b915060006139a88484613893565b9050808211156139b6578091505b62015180876139c591906156ed565b620151806139d4868686613632565b6139de9190615440565b6139e89190615238565b9450868510156139f757600080fd5b5050505092915050565b60006006613a0e836137b5565b10159050919050565b600080600080613a346201518087613a2f91906152f8565b613d4a565b9250925092508483613a469190615238565b92506000613a548484613893565b905080821115613a62578091505b6201518087613a7191906156ed565b62015180613a80868686613632565b613a8a9190615440565b613a949190615238565b945086851015613aa357600080fd5b5050505092915050565b600080600080613aca6201518087613ac591906152f8565b613d4a565b9250925092508483613adc919061552e565b92506000613aea8484613893565b905080821115613af8578091505b6201518087613b0791906156ed565b62015180613b16868686613632565b613b209190615440565b613b2a9190615238565b945086851115613b3957600080fd5b5050505092915050565b6000610e1082613b539190615440565b83613b5e9190615238565b905082811015613b6d57600080fd5b92915050565b600081603c84613b839190615440565b610e1086613b919190615440565b62015180613ba08b8b8b613632565b613baa9190615440565b613bb49190615238565b613bbe9190615238565b613bc89190615238565b90509695505050505050565b600081831115613be357600080fd5b8282613bef919061552e565b905092915050565b6000613c106201518083613c0b91906152f8565b613d4a565b909150905080915050919050565b60006201518082613c2f9190615440565b83613c3a9190615238565b905082811015613c4957600080fd5b92915050565b600081831115613c5e57600080fd5b600080613c786201518086613c7391906152f8565b613d4a565b5091509150600080613c976201518087613c9291906152f8565b613d4a565b509150915082600c85613caa9190615440565b82600c85613cb89190615440565b613cc29190615238565b613ccc919061552e565b613cd6919061552e565b94505050505092915050565b6000603c82613cf19190615440565b83613cfc9190615238565b905082811015613d0b57600080fd5b92915050565b6000603c82613d2091906156ed565b9050919050565b60008183613d359190615238565b905082811015613d4457600080fd5b92915050565b600080600080849050600062253d8c62010bd983613d6891906151a4565b613d7291906151a4565b9050600062023ab1826004613d879190615329565b613d91919061528e565b9050600460038262023ab1613da69190615329565b613db091906151a4565b613dba919061528e565b82613dc5919061549a565b9150600062164b09600184613dda91906151a4565b610fa0613de79190615329565b613df1919061528e565b9050601f6004826105b5613e059190615329565b613e0f919061528e565b84613e1a919061549a565b613e2491906151a4565b9250600061098f846050613e389190615329565b613e42919061528e565b9050600060508261098f613e569190615329565b613e60919061528e565b85613e6b919061549a565b9050600b82613e7a919061528e565b945084600c613e899190615329565b600283613e9691906151a4565b613ea0919061549a565b91508483603186613eb1919061549a565b6064613ebd9190615329565b613ec791906151a4565b613ed191906151a4565b92508298508197508096505050505050509193909250565b600080600080600080613f096201518088613f0491906152f8565b613d4a565b80965081975082985050505060006201518088613f2691906156ed565b9050610e1081613f3691906152f8565b9350610e1081613f4691906156ed565b9050603c81613f5591906152f8565b9250603c81613f6491906156ed565b91505091939550919395565b6000613f896201518083613f8491906152f8565b613d4a565b90505080915050919050565b6000603c82613fa49190615440565b83613faf919061552e565b905082811115613fbe57600080fd5b92915050565b6000613fdd6201518083613fd891906152f8565b613d4a565b9091505080915050919050565b600080600080614007620151808761400291906152f8565b613d4a565b92509250925060008560018461401d919061552e565b600c8661402a9190615440565b6140349190615238565b61403e919061552e565b9050600c8161404d91906152f8565b93506001600c8261405e91906156ed565b6140689190615238565b925060006140768585613893565b905080831115614084578092505b620151808861409391906156ed565b620151806140a2878787613632565b6140ac9190615440565b6140b69190615238565b9550878611156140c557600080fd5b505050505092915050565b6000806004836140e091906156ed565b1480156140fa575060006064836140f791906156ed565b14155b80614112575060006101908361411091906156ed565b145b9050919050565b600080614133620151808461412e91906152f8565b613d4a565b50509050614140816140d0565b915050919050565b600062015180826141599190615440565b83614164919061552e565b90508281111561417357600080fd5b92915050565b60008183111561418857600080fd5b620151808383614198919061552e565b6141a291906152f8565b905092915050565b600060056141b7836137b5565b11159050919050565b60008060006141dc62015180856141d791906152f8565b613d4a565b8093508194508295505050509193909250565b600081836141fd919061552e565b90508281111561420c57600080fd5b92915050565b600080610e108361422391906156ed565b9050603c8161423291906152f8565b915050919050565b60008183111561424957600080fd5b6000614262620151808561425d91906152f8565b613d4a565b50509050600061427f620151808561427a91906152f8565b613d4a565b50509050818161428f919061552e565b9250505092915050565b8280546142a590615625565b90600052602060002090601f0160209004810192826142c7576000855561430e565b82601f106142e057805160ff191683800117855561430e565b8280016001018555821561430e579182015b8281111561430d5782518255916020019190600101906142f2565b5b50905061431b9190614388565b5090565b60405180610140016040528060008152602001600073ffffffffffffffffffffffffffffffffffffffff16815260200160608152602001606081526020016060815260200160608152602001606081526020016060815260200160608152602001606081525090565b5b808211156143a1576000816000905550600101614389565b5090565b60006143b86143b384615090565b61506b565b9050828152602081018484840111156143d057600080fd5b6143db8482856155e3565b509392505050565b6000813590506143f281615b02565b92915050565b60008135905061440781615b19565b92915050565b60008135905061441c81615b30565b92915050565b600082601f83011261443357600080fd5b81356144438482602086016143a5565b91505092915050565b60008135905061445b81615b40565b92915050565b60006020828403121561447357600080fd5b6000614481848285016143e3565b91505092915050565b60008060008060008060008060006101208a8c0312156144a957600080fd5b60006144b78c828d016143e3565b99505060208a013567ffffffffffffffff8111156144d457600080fd5b6144e08c828d01614422565b98505060408a013567ffffffffffffffff8111156144fd57600080fd5b6145098c828d01614422565b97505060608a013567ffffffffffffffff81111561452657600080fd5b6145328c828d01614422565b96505060808a013567ffffffffffffffff81111561454f57600080fd5b61455b8c828d01614422565b95505060a08a013567ffffffffffffffff81111561457857600080fd5b6145848c828d01614422565b94505060c08a013567ffffffffffffffff8111156145a157600080fd5b6145ad8c828d01614422565b93505060e08a013567ffffffffffffffff8111156145ca57600080fd5b6145d68c828d01614422565b9250506101008a013567ffffffffffffffff8111156145f457600080fd5b6146008c828d01614422565b9150509295985092959850929598565b6000806040838503121561462357600080fd5b6000614631858286016143f8565b9250506020614642858286016143e3565b9150509250929050565b600080600080600060a0868803121561466457600080fd5b600086013567ffffffffffffffff81111561467e57600080fd5b61468a88828901614422565b955050602061469b8882890161444c565b94505060406146ac8882890161444c565b93505060606146bd8882890161444c565b92505060806146ce8882890161440d565b9150509295509295909350565b6000602082840312156146ed57600080fd5b60006146fb8482850161444c565b91505092915050565b6000806040838503121561471757600080fd5b60006147258582860161444c565b92505060206147368582860161444c565b9150509250929050565b60008060006060848603121561475557600080fd5b60006147638682870161444c565b93505060206147748682870161444c565b92505060406147858682870161444c565b9150509250925092565b60008060008060008060c087890312156147a857600080fd5b60006147b689828a0161444c565b96505060206147c789828a0161444c565b95505060406147d889828a0161444c565b94505060606147e989828a0161444c565b93505060806147fa89828a0161444c565b92505060a061480b89828a0161444c565b9150509295509295509295565b6000614824838361485c565b60208301905092915050565b600061483c83836149ba565b60208301905092915050565b60006148548383614beb565b905092915050565b61486581615562565b82525050565b61487481615562565b82525050565b6000614885826150f1565b61488f8185615144565b935061489a836150c1565b8060005b838110156148cb5781516148b28882614818565b97506148bd8361511d565b92505060018101905061489e565b5085935050505092915050565b60006148e3826150fc565b6148ed8185615155565b93506148f8836150d1565b8060005b838110156149295781516149108882614830565b975061491b8361512a565b9250506001810190506148fc565b5085935050505092915050565b600061494182615107565b61494b8185615166565b93508360208202850161495d856150e1565b8060005b85811015614999578484038952815161497a8582614848565b945061498583615137565b925060208a01995050600181019050614961565b50829750879550505050505092915050565b6149b481615574565b82525050565b6149c381615580565b82525050565b6149d281615580565b82525050565b6149e1816155d1565b82525050565b6149f86149f3826155d1565b6156db565b82525050565b614a078161559d565b82525050565b6000614a1882615112565b614a228185615177565b9350614a328185602086016155f2565b614a3b81615809565b840191505092915050565b6000614a5182615112565b614a5b8185615188565b9350614a6b8185602086016155f2565b614a7481615809565b840191505092915050565b6000614a8a82615112565b614a948185615199565b9350614aa48185602086016155f2565b80840191505092915050565b6000614abd602283615188565b9150614ac882615827565b604082019050919050565b6000614ae0602583615188565b9150614aeb82615876565b604082019050919050565b6000614b03602a83615188565b9150614b0e826158c5565b604082019050919050565b6000614b26602783615188565b9150614b3182615914565b604082019050919050565b6000614b49602783615188565b9150614b5482615963565b604082019050919050565b6000614b6c602283615188565b9150614b77826159b2565b604082019050919050565b6000614b8f602a83615188565b9150614b9a82615a01565b604082019050919050565b6000614bb2602283615188565b9150614bbd82615a50565b604082019050919050565b6000614bd5602f83615188565b9150614be082615a9f565b604082019050919050565b600061014083016000830151614c046000860182614cf6565b506020830151614c17602086018261485c565b5060408301518482036040860152614c2f8282614a0d565b91505060608301518482036060860152614c498282614a0d565b91505060808301518482036080860152614c638282614a0d565b91505060a083015184820360a0860152614c7d8282614a0d565b91505060c083015184820360c0860152614c978282614a0d565b91505060e083015184820360e0860152614cb18282614a0d565b915050610100830151848203610100860152614ccd8282614a0d565b915050610120830151848203610120860152614ce98282614a0d565b9150508091505092915050565b614cff816155c7565b82525050565b614d0e816155c7565b82525050565b614d25614d20826155c7565b6156d1565b82525050565b6000614d378288614a7f565b9150614d438287614d14565b602082019150614d538286614d14565b602082019150614d638285614d14565b602082019150614d7382846149e7565b6001820191508190509695505050505050565b6000602082019050614d9b600083018461486b565b92915050565b60006020820190508181036000830152614dbb818461487a565b905092915050565b60006020820190508181036000830152614ddd8184614936565b905092915050565b6000602082019050614dfa60008301846149ab565b92915050565b6000602082019050614e1560008301846149fe565b92915050565b600060e0820190508181036000830152614e35818a614a46565b9050614e446020830189614d05565b614e516040830188614d05565b614e5e6060830187614d05565b614e6b60808301866149d8565b614e7860a08301856149c9565b81810360c0830152614e8a81846148d8565b905098975050505050505050565b60006020820190508181036000830152614eb181614ab0565b9050919050565b60006020820190508181036000830152614ed181614ad3565b9050919050565b60006020820190508181036000830152614ef181614af6565b9050919050565b60006020820190508181036000830152614f1181614b19565b9050919050565b60006020820190508181036000830152614f3181614b3c565b9050919050565b60006020820190508181036000830152614f5181614b5f565b9050919050565b60006020820190508181036000830152614f7181614b82565b9050919050565b60006020820190508181036000830152614f9181614ba5565b9050919050565b60006020820190508181036000830152614fb181614bc8565b9050919050565b6000602082019050614fcd6000830184614d05565b92915050565b6000606082019050614fe86000830186614d05565b614ff56020830185614d05565b6150026040830184614d05565b949350505050565b600060c08201905061501f6000830189614d05565b61502c6020830188614d05565b6150396040830187614d05565b6150466060830186614d05565b6150536080830185614d05565b61506060a0830184614d05565b979650505050505050565b6000615075615086565b90506150818282615657565b919050565b6000604051905090565b600067ffffffffffffffff8211156150ab576150aa6157da565b5b6150b482615809565b9050602081019050919050565b6000819050602082019050919050565b6000819050602082019050919050565b6000819050602082019050919050565b600081519050919050565b600081519050919050565b600081519050919050565b600081519050919050565b6000602082019050919050565b6000602082019050919050565b6000602082019050919050565b600082825260208201905092915050565b600082825260208201905092915050565b600082825260208201905092915050565b600082825260208201905092915050565b600082825260208201905092915050565b600081905092915050565b60006151af8261559d565b91506151ba8361559d565b9250817f7fffffffffffffffffffffffffffffffffffffffffffffffffffffffffffffff038313600083121516156151f5576151f461571e565b5b817f800000000000000000000000000000000000000000000000000000000000000003831260008312161561522d5761522c61571e565b5b828201905092915050565b6000615243826155c7565b915061524e836155c7565b9250827fffffffffffffffffffffffffffffffffffffffffffffffffffffffffffffffff038211156152835761528261571e565b5b828201905092915050565b60006152998261559d565b91506152a48361559d565b9250826152b4576152b361574d565b5b600160000383147f8000000000000000000000000000000000000000000000000000000000000000831416156152ed576152ec61571e565b5b828205905092915050565b6000615303826155c7565b915061530e836155c7565b92508261531e5761531d61574d565b5b828204905092915050565b60006153348261559d565b915061533f8361559d565b9250827f7fffffffffffffffffffffffffffffffffffffffffffffffffffffffffffffff048211600084136000841316161561537e5761537d61571e565b5b817f800000000000000000000000000000000000000000000000000000000000000005831260008412600084131616156153bb576153ba61571e565b5b827f800000000000000000000000000000000000000000000000000000000000000005821260008413600084121616156153f8576153f761571e565b5b827f7fffffffffffffffffffffffffffffffffffffffffffffffffffffffffffffff05821260008412600084121616156154355761543461571e565b5b828202905092915050565b600061544b826155c7565b9150615456836155c7565b9250817fffffffffffffffffffffffffffffffffffffffffffffffffffffffffffffffff048311821515161561548f5761548e61571e565b5b828202905092915050565b60006154a58261559d565b91506154b08361559d565b9250827f8000000000000000000000000000000000000000000000000000000000000000018212600084121516156154eb576154ea61571e565b5b827f7fffffffffffffffffffffffffffffffffffffffffffffffffffffffffffffff0182136000841216156155235761552261571e565b5b828203905092915050565b6000615539826155c7565b9150615544836155c7565b9250828210156155575761555661571e565b5b828203905092915050565b600061556d826155a7565b9050919050565b60008115159050919050565b6000819050919050565b600081905061559882615aee565b919050565b6000819050919050565b600073ffffffffffffffffffffffffffffffffffffffff82169050919050565b6000819050919050565b60006155dc8261558a565b9050919050565b82818337600083830152505050565b60005b838110156156105780820151818401526020810190506155f5565b8381111561561f576000848401525b50505050565b6000600282049050600182168061563d57607f821691505b60208210811415615651576156506157ab565b5b50919050565b61566082615809565b810181811067ffffffffffffffff8211171561567f5761567e6157da565b5b80604052505050565b6000615693826155c7565b91507fffffffffffffffffffffffffffffffffffffffffffffffffffffffffffffffff8214156156c6576156c561571e565b5b600182019050919050565b6000819050919050565b60006156e68261581a565b9050919050565b60006156f8826155c7565b9150615703836155c7565b9250826157135761571261574d565b5b828206905092915050565b7f4e487b7100000000000000000000000000000000000000000000000000000000600052601160045260246000fd5b7f4e487b7100000000000000000000000000000000000000000000000000000000600052601260045260246000fd5b7f4e487b7100000000000000000000000000000000000000000000000000000000600052602160045260246000fd5b7f4e487b7100000000000000000000000000000000000000000000000000000000600052602260045260246000fd5b7f4e487b7100000000000000000000000000000000000000000000000000000000600052604160045260246000fd5b6000601f19601f8301169050919050565b60008160f81b9050919050565b7f426972746820646174652063616e277420626520696e2074686520667574757260008201527f652e000000000000000000000000000000000000000000000000000000000000602082015250565b7f506572736f6e616c20646174612073686f756c642062652066696c6c6564206660008201527f697273742e000000000000000000000000000000000000000000000000000000602082015250565b7f5468617420706172747920616c726561647920686173206e6f2076696577207060008201527f65726d697373696f6e2e00000000000000000000000000000000000000000000602082015250565b7f5468617420706172747920616c7265616479206861732065646974207065726d60008201527f697373696f6e2e00000000000000000000000000000000000000000000000000602082015250565b7f5468617420706172747920616c7265616479206861732076696577207065726d60008201527f697373696f6e2e00000000000000000000000000000000000000000000000000602082015250565b7f596f7520646f6e27742068617665207065726d697373696f6e20746f2076696560008201527f772e000000000000000000000000000000000000000000000000000000000000602082015250565b7f5468617420706172747920616c726561647920686173206e6f2065646974207060008201527f65726d697373696f6e2e00000000000000000000000000000000000000000000602082015250565b7f596f7520646f6e27742068617665207065726d697373696f6e20746f2065646960008201527f742e000000000000000000000000000000000000000000000000000000000000602082015250565b7f506c6561736520696e7365727420612076616c6964206461746520696e20595960008201527f5959204d4d20444420666f726d61740000000000000000000000000000000000602082015250565b60038110615aff57615afe61577c565b5b50565b615b0b81615562565b8114615b1657600080fd5b50565b615b2281615574565b8114615b2d57600080fd5b50565b60038110615b3d57600080fd5b50565b615b49816155c7565b8114615b5457600080fd5b5056fea2646970667358221220b90952da40bbaafe1ea28f8529e8e3eab842fd289c754db624fc5fd8f8fbfd8e64736f6c63430008010033",
  "immutableReferences": {},
  "source": "pragma solidity 0.8.1;\r\n\r\nimport \"./BokkyPooBahsDateTimeContract.sol\";\r\n\r\ncontract MedRec is BokkyPooBahsDateTimeContract{\r\n    \r\n    enum Gender{\r\n        Male, Female, Other\r\n    }\r\n    \r\n    struct Person{\r\n        string hashed_fullName_birthCountry_nationalID;   // variables should be concatenated and hashed on client side before entering blockchain to protect privacy\r\n        uint birthYear;\r\n        uint birthMonth;\r\n        uint birthDay;\r\n        Gender gender;\r\n        bytes32 checkValueCurrent;        //based on the previous varibles\r\n        bytes32[] checkValueHistory;\r\n        MedicalRecord[] recordList;\r\n        address owner;\r\n        address[] viewers;\r\n        mapping (address => bool) viewer;\r\n        address[] editors;\r\n        mapping (address => bool) editor;\r\n    }\r\n    \r\n    struct MedicalRecord{      //https://www.practicefusion.com/medical-charts/\r\n        uint recordDate;\r\n        address recordCreator;\r\n        string description;\r\n        string extReferences;\r\n        string laboratoryResult;\r\n        string underlyingDisease_familyData_habitsAndOccupation;\r\n        string medicationOrVaccines;\r\n        string injury;\r\n        string surgery;\r\n        string other;\r\n    }\r\n    \r\n    mapping (address => Person) private persons;\r\n    \r\n    event personCreatedOrUpdated(address pers);\r\n    event viewerAdded(address party);\r\n    event viewerRemoved(address party);\r\n    event editorAdded(address party);\r\n    event editorRemoved(address party);\r\n\r\n    function createEditPerson(string memory _hashed_fullName_birthCountry_nationalID, uint _birthYear, uint _birthMonth, uint _birthDay, Gender _gender) public {\r\n        require(isValidDate(_birthYear, _birthMonth, _birthDay), \"Please insert a valid date in YYYY MM DD format\");\r\n        require(timestampFromDate(_birthYear, _birthMonth, _birthDay) <= block.timestamp, \"Birth date can't be in the future.\");\r\n        persons[msg.sender].hashed_fullName_birthCountry_nationalID = _hashed_fullName_birthCountry_nationalID;\r\n        persons[msg.sender].birthYear = _birthYear;\r\n        persons[msg.sender].birthMonth = _birthMonth;\r\n        persons[msg.sender].birthDay = _birthDay;\r\n        persons[msg.sender].gender = _gender;\r\n        persons[msg.sender].owner = msg.sender;\r\n        \r\n        persons[msg.sender].checkValueCurrent = keccak256(abi.encodePacked(_hashed_fullName_birthCountry_nationalID, _birthYear, _birthMonth, _birthDay, _gender));\r\n        persons[msg.sender].checkValueHistory.push(persons[msg.sender].checkValueCurrent);\r\n        \r\n        if(persons[msg.sender].viewer[msg.sender] == false){\r\n            viewerAddRemove(true, msg.sender);\r\n        }\r\n        if(persons[msg.sender].editor[msg.sender] == false){\r\n            editorAddRemove(true, msg.sender);\r\n        }\r\n        \r\n        emit personCreatedOrUpdated(msg.sender);\r\n    }\r\n\r\n    function getPersonalData(address _patient) public view returns(string memory, uint, uint, uint, Gender, bytes32, bytes32[] memory){\r\n        require(persons[_patient].viewer[msg.sender] == true, \"You don't have permission to view.\");\r\n        return (\r\n            persons[_patient].hashed_fullName_birthCountry_nationalID,\r\n            persons[_patient].birthYear,\r\n            persons[_patient].birthMonth,\r\n            persons[_patient].birthDay,\r\n            persons[_patient].gender,\r\n            persons[_patient].checkValueCurrent,\r\n            persons[_patient].checkValueHistory);\r\n    }\r\n\r\n    function getCheckValueHistoryLength(address _patient) public view returns(uint){     //just for testing purposes\r\n        uint length = persons[_patient].checkValueHistory.length;\r\n        return length;\r\n    }\r\n\r\n    function getRecords(address _patient) public view returns(MedicalRecord[] memory){\r\n        require(persons[_patient].viewer[msg.sender] == true, \"You don't have permission to view.\");\r\n        return persons[_patient].recordList;\r\n    }\r\n    \r\n    function addMedicalRecord(address _patient, string memory _description, string memory _extReferences, string memory _laboratoryResult, string memory _underlyingDisease_familyData_habitsAndOccupation, string memory _medicationOrVaccines, string memory _injury, string memory _surgery, string memory _other) public {\r\n        require(persons[_patient].editor[msg.sender] == true, \"You don't have permission to edit.\");\r\n        require(persons[_patient].birthDay != 0, \"Personal data should be filled first.\");\r\n        MedicalRecord memory recordToAdd;\r\n        recordToAdd.recordDate = block.timestamp;\r\n        recordToAdd.recordCreator = msg.sender;\r\n        recordToAdd.description = _description;\r\n        recordToAdd.extReferences = _extReferences;\r\n        recordToAdd.laboratoryResult = _laboratoryResult;\r\n        recordToAdd.underlyingDisease_familyData_habitsAndOccupation = _underlyingDisease_familyData_habitsAndOccupation;\r\n        recordToAdd.medicationOrVaccines = _medicationOrVaccines;\r\n        recordToAdd.injury = _injury;\r\n        recordToAdd.surgery = _surgery;\r\n        recordToAdd.other = _other;\r\n        persons[_patient].recordList.push(recordToAdd);\r\n    }\r\n    \r\n    function viewerAddRemove(bool addRemove, address party) public {\r\n        if(addRemove == true){\r\n            require (persons[msg.sender].viewer[party] == false, \"That party already has view permission.\");\r\n            persons[msg.sender].viewers.push(party);\r\n            persons[msg.sender].viewer[party] = true;\r\n            emit viewerAdded(party);\r\n        }\r\n        else{\r\n            uint l = persons[msg.sender].viewers.length;\r\n            require (persons[msg.sender].viewer[party] == true, \"That party already has no view permission.\");\r\n            for(uint i=0; i<l; i++){\r\n                if(persons[msg.sender].viewers[i] == party){\r\n                    persons[msg.sender].viewers[i] = persons[msg.sender].viewers[l-1];\r\n                    persons[msg.sender].viewers.pop();\r\n                    persons[msg.sender].viewer[party] = false;\r\n                    emit viewerRemoved(party);\r\n                }\r\n            }\r\n        }\r\n    }\r\n    \r\n    function editorAddRemove(bool addRemove, address party) public {\r\n        if(addRemove == true){\r\n            require (persons[msg.sender].editor[party] == false, \"That party already has edit permission.\");\r\n            persons[msg.sender].editors.push(party);\r\n            persons[msg.sender].editor[party] = true;\r\n            emit editorAdded(party);\r\n        }\r\n        else{\r\n            uint l = persons[msg.sender].editors.length;\r\n            require (persons[msg.sender].editor[party] == true, \"That party already has no edit permission.\");\r\n            for(uint i=0; i<l; i++){\r\n                if(persons[msg.sender].editors[i] == party){\r\n                    persons[msg.sender].editors[i] = persons[msg.sender].editors[l-1];\r\n                    persons[msg.sender].editors.pop();\r\n                    persons[msg.sender].editor[party] = false;\r\n                    emit editorRemoved(party);\r\n                }\r\n            }\r\n        }\r\n    }\r\n    \r\n    function getYourViewers() public view returns(address[] memory){\r\n        return persons[msg.sender].viewers;\r\n    }\r\n    \r\n    function getYourEditors() public view returns(address[] memory){\r\n        return persons[msg.sender].editors;\r\n    }\r\n    \r\n}",
  "sourcePath": "C:/Users/outlet/Documents/Ivan on Tech/Medical Records Project/contracts/MR.sol",
  "compiler": {
    "name": "solc",
    "version": "0.8.1+commit.df193b15.Emscripten.clang"
  },
  "schemaVersion": "3.3.4",
  "updatedAt": "2021-04-22T19:25:55.327Z",
  "networkType": "ethereum",
  "devdoc": {
    "kind": "dev",
    "methods": {},
    "version": 1
  },
  "userdoc": {
    "kind": "user",
    "methods": {},
    "version": 1
  }
}